{
  "contractName": "MarketPlace",
  "abi": [
    {
      "anonymous": false,
      "inputs": [
        {
          "indexed": false,
          "internalType": "uint256",
          "name": "id",
          "type": "uint256"
        },
        {
          "indexed": false,
          "internalType": "bool",
          "name": "arrived",
          "type": "bool"
        },
        {
          "indexed": false,
          "internalType": "uint256",
          "name": "updated",
          "type": "uint256"
        }
      ],
      "name": "Arrived",
      "type": "event"
    },
    {
      "anonymous": false,
      "inputs": [
        {
          "indexed": false,
          "internalType": "address",
          "name": "_from",
          "type": "address"
        },
        {
          "indexed": false,
          "internalType": "address",
          "name": "_to",
          "type": "address"
        },
        {
          "indexed": false,
          "internalType": "uint256",
          "name": "amt",
          "type": "uint256"
        }
      ],
      "name": "BoughtProduct",
      "type": "event"
    },
    {
      "anonymous": false,
      "inputs": [
        {
          "indexed": false,
          "internalType": "uint256",
          "name": "id",
          "type": "uint256"
        },
        {
          "indexed": false,
          "internalType": "string",
          "name": "full_name",
          "type": "string"
        },
        {
          "indexed": false,
          "internalType": "string",
          "name": "picture",
          "type": "string"
        },
        {
          "indexed": false,
          "internalType": "string",
          "name": "email_address",
          "type": "string"
        },
        {
          "indexed": false,
          "internalType": "address",
          "name": "buyer_wallet_address",
          "type": "address"
        }
      ],
      "name": "BuyerCreated",
      "type": "event"
    },
    {
      "anonymous": false,
      "inputs": [
        {
          "indexed": false,
          "internalType": "uint256",
          "name": "id",
          "type": "uint256"
        },
        {
          "indexed": false,
          "internalType": "string",
          "name": "full_name",
          "type": "string"
        },
        {
          "indexed": false,
          "internalType": "string",
          "name": "picture",
          "type": "string"
        },
        {
          "indexed": false,
          "internalType": "string",
          "name": "farm_name",
          "type": "string"
        },
        {
          "indexed": false,
          "internalType": "string",
          "name": "email_adddress",
          "type": "string"
        },
        {
          "indexed": false,
          "internalType": "string",
          "name": "farm_description",
          "type": "string"
        },
        {
          "indexed": false,
          "internalType": "address",
          "name": "farmer_wallet_address",
          "type": "address"
        }
      ],
      "name": "FarmCreated",
      "type": "event"
    },
    {
      "anonymous": false,
      "inputs": [
        {
          "indexed": false,
          "internalType": "uint256",
          "name": "id",
          "type": "uint256"
        },
        {
          "indexed": false,
          "internalType": "bool",
          "name": "left",
          "type": "bool"
        },
        {
          "indexed": false,
          "internalType": "uint256",
          "name": "updated",
          "type": "uint256"
        }
      ],
      "name": "Left",
      "type": "event"
    },
    {
      "anonymous": false,
      "inputs": [
        {
          "indexed": false,
          "internalType": "uint256",
          "name": "id",
          "type": "uint256"
        },
        {
          "indexed": false,
          "internalType": "string",
          "name": "product_name",
          "type": "string"
        },
        {
          "indexed": false,
          "internalType": "string",
          "name": "product_description",
          "type": "string"
        },
        {
          "indexed": false,
          "internalType": "uint256",
          "name": "product_price",
          "type": "uint256"
        },
        {
          "indexed": false,
          "internalType": "string",
          "name": "upload_image",
          "type": "string"
        },
        {
          "indexed": false,
          "internalType": "address payable",
          "name": "seller",
          "type": "address"
        }
      ],
      "name": "ProductCreated",
      "type": "event"
    },
    {
      "anonymous": false,
      "inputs": [
        {
          "indexed": false,
          "internalType": "uint256",
          "name": "id",
          "type": "uint256"
        },
        {
          "indexed": false,
          "internalType": "uint256",
          "name": "product_id",
          "type": "uint256"
        },
        {
          "indexed": false,
          "internalType": "string",
          "name": "product_name",
          "type": "string"
        },
        {
          "indexed": false,
          "internalType": "uint256",
          "name": "product_price",
          "type": "uint256"
        },
        {
          "indexed": false,
          "internalType": "bool",
          "name": "left",
          "type": "bool"
        },
        {
          "indexed": false,
          "internalType": "bool",
          "name": "arrived",
          "type": "bool"
        },
        {
          "indexed": false,
          "internalType": "bool",
          "name": "pending",
          "type": "bool"
        },
        {
          "indexed": false,
          "internalType": "uint256",
          "name": "timestamp",
          "type": "uint256"
        },
        {
          "indexed": false,
          "internalType": "uint256",
          "name": "updated",
          "type": "uint256"
        }
      ],
      "name": "TraceCreated",
      "type": "event"
    },
    {
      "anonymous": false,
      "inputs": [
        {
          "indexed": false,
          "internalType": "uint256",
          "name": "id",
          "type": "uint256"
        },
        {
          "indexed": false,
          "internalType": "string",
          "name": "transport_name",
          "type": "string"
        },
        {
          "indexed": false,
          "internalType": "string",
          "name": "transport_description",
          "type": "string"
        },
        {
          "indexed": false,
          "internalType": "string",
          "name": "picture",
          "type": "string"
        },
        {
          "indexed": false,
          "internalType": "string",
          "name": "transport_address",
          "type": "string"
        },
        {
          "indexed": false,
          "internalType": "address",
          "name": "transport_wallet_address",
          "type": "address"
        },
        {
          "indexed": false,
          "internalType": "uint256",
          "name": "price",
          "type": "uint256"
        }
      ],
      "name": "TransportCompanyCreated",
      "type": "event"
    },
    {
      "constant": true,
      "inputs": [],
      "name": "buyerCount",
      "outputs": [
        {
          "internalType": "uint256",
          "name": "",
          "type": "uint256"
        }
      ],
      "payable": false,
      "stateMutability": "view",
      "type": "function"
    },
    {
      "constant": true,
      "inputs": [
        {
          "internalType": "uint256",
          "name": "",
          "type": "uint256"
        }
      ],
      "name": "buyers",
      "outputs": [
        {
          "internalType": "uint256",
          "name": "id",
          "type": "uint256"
        },
        {
          "internalType": "string",
          "name": "full_name",
          "type": "string"
        },
        {
          "internalType": "string",
          "name": "picture",
          "type": "string"
        },
        {
          "internalType": "string",
          "name": "email_address",
          "type": "string"
        },
        {
          "internalType": "address",
          "name": "buyer_wallet_address",
          "type": "address"
        }
      ],
      "payable": false,
      "stateMutability": "view",
      "type": "function"
    },
    {
      "constant": true,
      "inputs": [],
      "name": "dapp_builder",
      "outputs": [
        {
          "internalType": "string",
          "name": "",
          "type": "string"
        }
      ],
      "payable": false,
      "stateMutability": "view",
      "type": "function"
    },
    {
      "constant": true,
      "inputs": [],
      "name": "dapp_name",
      "outputs": [
        {
          "internalType": "string",
          "name": "",
          "type": "string"
        }
      ],
      "payable": false,
      "stateMutability": "view",
      "type": "function"
    },
    {
      "constant": true,
      "inputs": [],
      "name": "farmerCount",
      "outputs": [
        {
          "internalType": "uint256",
          "name": "",
          "type": "uint256"
        }
      ],
      "payable": false,
      "stateMutability": "view",
      "type": "function"
    },
    {
      "constant": true,
      "inputs": [
        {
          "internalType": "uint256",
          "name": "",
          "type": "uint256"
        }
      ],
      "name": "farmers",
      "outputs": [
        {
          "internalType": "uint256",
          "name": "id",
          "type": "uint256"
        },
        {
          "internalType": "string",
          "name": "full_name",
          "type": "string"
        },
        {
          "internalType": "string",
          "name": "picture",
          "type": "string"
        },
        {
          "internalType": "string",
          "name": "farm_name",
          "type": "string"
        },
        {
          "internalType": "string",
          "name": "email_adddress",
          "type": "string"
        },
        {
          "internalType": "string",
          "name": "farm_description",
          "type": "string"
        },
        {
          "internalType": "address",
          "name": "farmer_wallet_address",
          "type": "address"
        }
      ],
      "payable": false,
      "stateMutability": "view",
      "type": "function"
    },
    {
      "constant": true,
      "inputs": [],
      "name": "productCount",
      "outputs": [
        {
          "internalType": "uint256",
          "name": "",
          "type": "uint256"
        }
      ],
      "payable": false,
      "stateMutability": "view",
      "type": "function"
    },
    {
      "constant": true,
      "inputs": [
        {
          "internalType": "uint256",
          "name": "",
          "type": "uint256"
        }
      ],
      "name": "products",
      "outputs": [
        {
          "internalType": "uint256",
          "name": "id",
          "type": "uint256"
        },
        {
          "internalType": "string",
          "name": "product_name",
          "type": "string"
        },
        {
          "internalType": "string",
          "name": "product_description",
          "type": "string"
        },
        {
          "internalType": "uint256",
          "name": "product_price",
          "type": "uint256"
        },
        {
          "internalType": "string",
          "name": "upload_image",
          "type": "string"
        },
        {
          "internalType": "address payable",
          "name": "seller",
          "type": "address"
        }
      ],
      "payable": false,
      "stateMutability": "view",
      "type": "function"
    },
    {
      "constant": true,
      "inputs": [],
      "name": "traceCount",
      "outputs": [
        {
          "internalType": "uint256",
          "name": "",
          "type": "uint256"
        }
      ],
      "payable": false,
      "stateMutability": "view",
      "type": "function"
    },
    {
      "constant": true,
      "inputs": [
        {
          "internalType": "uint256",
          "name": "",
          "type": "uint256"
        }
      ],
      "name": "tracing",
      "outputs": [
        {
          "internalType": "uint256",
          "name": "id",
          "type": "uint256"
        },
        {
          "internalType": "uint256",
          "name": "price_id",
          "type": "uint256"
        },
        {
          "internalType": "string",
          "name": "product_name",
          "type": "string"
        },
        {
          "internalType": "uint256",
          "name": "product_price",
          "type": "uint256"
        },
        {
          "internalType": "bool",
          "name": "left",
          "type": "bool"
        },
        {
          "internalType": "bool",
          "name": "arrived",
          "type": "bool"
        },
        {
          "internalType": "bool",
          "name": "pending",
          "type": "bool"
        },
        {
          "internalType": "uint256",
          "name": "timestamp",
          "type": "uint256"
        },
        {
          "internalType": "uint256",
          "name": "updated",
          "type": "uint256"
        }
      ],
      "payable": false,
      "stateMutability": "view",
      "type": "function"
    },
    {
      "constant": true,
      "inputs": [],
      "name": "transportCompanyCount",
      "outputs": [
        {
          "internalType": "uint256",
          "name": "",
          "type": "uint256"
        }
      ],
      "payable": false,
      "stateMutability": "view",
      "type": "function"
    },
    {
      "constant": true,
      "inputs": [
        {
          "internalType": "uint256",
          "name": "",
          "type": "uint256"
        }
      ],
      "name": "transport_companies",
      "outputs": [
        {
          "internalType": "uint256",
          "name": "id",
          "type": "uint256"
        },
        {
          "internalType": "string",
          "name": "transport_name",
          "type": "string"
        },
        {
          "internalType": "string",
          "name": "transport_description",
          "type": "string"
        },
        {
          "internalType": "string",
          "name": "picture",
          "type": "string"
        },
        {
          "internalType": "string",
          "name": "transport_address",
          "type": "string"
        },
        {
          "internalType": "address payable",
          "name": "transport_wallet_address",
          "type": "address"
        },
        {
          "internalType": "uint256",
          "name": "price",
          "type": "uint256"
        }
      ],
      "payable": false,
      "stateMutability": "view",
      "type": "function"
    },
    {
      "constant": false,
      "inputs": [
        {
          "internalType": "string",
          "name": "_full_name",
          "type": "string"
        },
        {
          "internalType": "string",
          "name": "_picture",
          "type": "string"
        },
        {
          "internalType": "string",
          "name": "_farm_name",
          "type": "string"
        },
        {
          "internalType": "string",
          "name": "_email_address",
          "type": "string"
        },
        {
          "internalType": "string",
          "name": "_farm_description",
          "type": "string"
        }
      ],
      "name": "createSellerProfile",
      "outputs": [],
      "payable": false,
      "stateMutability": "nonpayable",
      "type": "function"
    },
    {
      "constant": false,
      "inputs": [
        {
          "internalType": "string",
          "name": "_full_name",
          "type": "string"
        },
        {
          "internalType": "string",
          "name": "_picture",
          "type": "string"
        },
        {
          "internalType": "string",
          "name": "_email_address",
          "type": "string"
        }
      ],
      "name": "createBuyer",
      "outputs": [],
      "payable": false,
      "stateMutability": "nonpayable",
      "type": "function"
    },
    {
      "constant": false,
      "inputs": [
        {
          "internalType": "string",
          "name": "_transport_name",
          "type": "string"
        },
        {
          "internalType": "string",
          "name": "_transport_description",
          "type": "string"
        },
        {
          "internalType": "string",
          "name": "_picture",
          "type": "string"
        },
        {
          "internalType": "string",
          "name": "_transport_address",
          "type": "string"
        },
        {
          "internalType": "uint256",
          "name": "_price",
          "type": "uint256"
        }
      ],
      "name": "createTransportCompany",
      "outputs": [],
      "payable": false,
      "stateMutability": "nonpayable",
      "type": "function"
    },
    {
      "constant": false,
      "inputs": [
        {
          "internalType": "uint256",
          "name": "_product_id",
          "type": "uint256"
        },
        {
          "internalType": "string",
          "name": "transport_name",
          "type": "string"
        }
      ],
      "name": "createTrace",
      "outputs": [],
      "payable": false,
      "stateMutability": "nonpayable",
      "type": "function"
    },
    {
      "constant": false,
      "inputs": [
        {
          "internalType": "uint256",
          "name": "_id",
          "type": "uint256"
        },
        {
          "internalType": "bool",
          "name": "status",
          "type": "bool"
        }
      ],
      "name": "leftTrace",
      "outputs": [],
      "payable": false,
      "stateMutability": "nonpayable",
      "type": "function"
    },
    {
      "constant": false,
      "inputs": [
        {
          "internalType": "uint256",
          "name": "_id",
          "type": "uint256"
        },
        {
          "internalType": "bool",
          "name": "status",
          "type": "bool"
        }
      ],
      "name": "arriveTrace",
      "outputs": [],
      "payable": false,
      "stateMutability": "nonpayable",
      "type": "function"
    },
    {
      "constant": true,
      "inputs": [
        {
          "internalType": "uint256",
          "name": "_id",
          "type": "uint256"
        }
      ],
      "name": "getFarmerDetail",
      "outputs": [
        {
          "internalType": "uint256",
          "name": "id",
          "type": "uint256"
        },
        {
          "internalType": "string",
          "name": "",
          "type": "string"
        },
        {
          "internalType": "string",
          "name": "",
          "type": "string"
        },
        {
          "internalType": "string",
          "name": "",
          "type": "string"
        },
        {
          "internalType": "string",
          "name": "",
          "type": "string"
        },
        {
          "internalType": "string",
          "name": "",
          "type": "string"
        },
        {
          "internalType": "address",
          "name": "",
          "type": "address"
        }
      ],
      "payable": false,
      "stateMutability": "view",
      "type": "function"
    },
    {
      "constant": true,
      "inputs": [
        {
          "internalType": "uint256",
          "name": "_id",
          "type": "uint256"
        }
      ],
      "name": "getBuyerDetail",
      "outputs": [
        {
          "internalType": "uint256",
          "name": "",
          "type": "uint256"
        },
        {
          "internalType": "string",
          "name": "",
          "type": "string"
        },
        {
          "internalType": "string",
          "name": "",
          "type": "string"
        },
        {
          "internalType": "string",
          "name": "",
          "type": "string"
        },
        {
          "internalType": "address",
          "name": "",
          "type": "address"
        }
      ],
      "payable": false,
      "stateMutability": "view",
      "type": "function"
    },
    {
      "constant": true,
      "inputs": [
        {
          "internalType": "uint256",
          "name": "_id",
          "type": "uint256"
        }
      ],
      "name": "getTransportCompanyDetaul",
      "outputs": [
        {
          "internalType": "uint256",
          "name": "id",
          "type": "uint256"
        },
        {
          "internalType": "string",
          "name": "",
          "type": "string"
        },
        {
          "internalType": "string",
          "name": "",
          "type": "string"
        },
        {
          "internalType": "string",
          "name": "",
          "type": "string"
        },
        {
          "internalType": "string",
          "name": "",
          "type": "string"
        },
        {
          "internalType": "address",
          "name": "",
          "type": "address"
        },
        {
          "internalType": "uint256",
          "name": "",
          "type": "uint256"
        }
      ],
      "payable": false,
      "stateMutability": "view",
      "type": "function"
    },
    {
      "constant": false,
      "inputs": [
        {
          "internalType": "string",
          "name": "_product_name",
          "type": "string"
        },
        {
          "internalType": "string",
          "name": "_product_description",
          "type": "string"
        },
        {
          "internalType": "uint256",
          "name": "_price",
          "type": "uint256"
        },
        {
          "internalType": "string",
          "name": "_upload_image",
          "type": "string"
        }
      ],
      "name": "createProduct",
      "outputs": [],
      "payable": false,
      "stateMutability": "nonpayable",
      "type": "function"
    },
    {
      "constant": false,
      "inputs": [
        {
          "internalType": "uint256",
          "name": "_id",
          "type": "uint256"
        }
      ],
      "name": "buyProduct",
      "outputs": [],
      "payable": true,
      "stateMutability": "payable",
      "type": "function"
    }
  ],
  "bytecode": "0x60806040526040518060400160405280601281526020017f40476f6f646e657373457a656f6b61666f72000000000000000000000000000081525060019080519060200190620000519291906200007f565b50600060025560006003556000600455600060055560006006553480156200007857600080fd5b506200012e565b828054600181600116156101000203166002900490600052602060002090601f016020900481019282601f10620000c257805160ff1916838001178555620000f3565b82800160010185558215620000f3579182015b82811115620000f2578251825591602001919060010190620000d5565b5b50905062000102919062000106565b5090565b6200012b91905b80821115620001275760008160009055506001016200010d565b5090565b90565b61537d806200013e6000396000f3fe6080604052600436106101405760003560e01c80638642269e116100b6578063c604a79a1161006f578063c604a79a14611655578063cfb91a3a14611979578063de8d352814611bb2578063e0f6ef8714611bf9578063f18ee5a214611c24578063f2aa821814611cb457610140565b80638642269e1461100c5780638afdd6691461103a5780639e0cea05146112d8578063b3ea346b14611303578063bd45b39714611393578063c4b8e3fc146113be57610140565b806342b6f93e1161010857806342b6f93e14610a3d5780634b0b599214610b3557806367c38f1814610cfb578063684f7ccd14610d2657806374060a5014610df85780637acc0b2014610e3f57610140565b806301e57dec146101455780630413a4ad1461033b5780630f709b9a1461057457806312c8919614610812578063395ae18f14610a12575b600080fd5b34801561015157600080fd5b506103396004803603606081101561016857600080fd5b810190808035906020019064010000000081111561018557600080fd5b82018360208201111561019757600080fd5b803590602001918460018302840111640100000000831117156101b957600080fd5b91908080601f016020809104026020016040519081016040528093929190818152602001838380828437600081840152601f19601f8201169050808301925050505050505091929192908035906020019064010000000081111561021c57600080fd5b82018360208201111561022e57600080fd5b8035906020019184600183028401116401000000008311171561025057600080fd5b91908080601f016020809104026020016040519081016040528093929190818152602001838380828437600081840152601f19601f820116905080830192505050505050509192919290803590602001906401000000008111156102b357600080fd5b8201836020820111156102c557600080fd5b803590602001918460018302840111640100000000831117156102e757600080fd5b91908080601f016020809104026020016040519081016040528093929190818152602001838380828437600081840152601f19601f820116905080830192505050505050509192919290505050611e7a565b005b34801561034757600080fd5b506103746004803603602081101561035e57600080fd5b8101908080359060200190929190505050612144565b60405180888152602001806020018060200180602001806020018773ffffffffffffffffffffffffffffffffffffffff1673ffffffffffffffffffffffffffffffffffffffff16815260200186815260200185810385528b818151815260200191508051906020019080838360005b838110156103fe5780820151818401526020810190506103e3565b50505050905090810190601f16801561042b5780820380516001836020036101000a031916815260200191505b5085810384528a818151815260200191508051906020019080838360005b83811015610464578082015181840152602081019050610449565b50505050905090810190601f1680156104915780820380516001836020036101000a031916815260200191505b50858103835289818151815260200191508051906020019080838360005b838110156104ca5780820151818401526020810190506104af565b50505050905090810190601f1680156104f75780820380516001836020036101000a031916815260200191505b50858103825288818151815260200191508051906020019080838360005b83811015610530578082015181840152602081019050610515565b50505050905090810190601f16801561055d5780820380516001836020036101000a031916815260200191505b509b50505050505050505050505060405180910390f35b34801561058057600080fd5b506105ad6004803603602081101561059757600080fd5b8101908080359060200190929190505050612406565b6040518088815260200180602001806020018060200180602001806020018773ffffffffffffffffffffffffffffffffffffffff1673ffffffffffffffffffffffffffffffffffffffff16815260200186810386528c818151815260200191508051906020019080838360005b8381101561063557808201518184015260208101905061061a565b50505050905090810190601f1680156106625780820380516001836020036101000a031916815260200191505b5086810385528b818151815260200191508051906020019080838360005b8381101561069b578082015181840152602081019050610680565b50505050905090810190601f1680156106c85780820380516001836020036101000a031916815260200191505b5086810384528a818151815260200191508051906020019080838360005b838110156107015780820151818401526020810190506106e6565b50505050905090810190601f16801561072e5780820380516001836020036101000a031916815260200191505b50868103835289818151815260200191508051906020019080838360005b8381101561076757808201518184015260208101905061074c565b50505050905090810190601f1680156107945780820380516001836020036101000a031916815260200191505b50868103825288818151815260200191508051906020019080838360005b838110156107cd5780820151818401526020810190506107b2565b50505050905090810190601f1680156107fa5780820380516001836020036101000a031916815260200191505b509c5050505050505050505050505060405180910390f35b34801561081e57600080fd5b50610a106004803603608081101561083557600080fd5b810190808035906020019064010000000081111561085257600080fd5b82018360208201111561086457600080fd5b8035906020019184600183028401116401000000008311171561088657600080fd5b91908080601f016020809104026020016040519081016040528093929190818152602001838380828437600081840152601f19601f820116905080830192505050505050509192919290803590602001906401000000008111156108e957600080fd5b8201836020820111156108fb57600080fd5b8035906020019184600183028401116401000000008311171561091d57600080fd5b91908080601f016020809104026020016040519081016040528093929190818152602001838380828437600081840152601f19601f820116905080830192505050505050509192919290803590602001909291908035906020019064010000000081111561098a57600080fd5b82018360208201111561099c57600080fd5b803590602001918460018302840111640100000000831117156109be57600080fd5b91908080601f016020809104026020016040519081016040528093929190818152602001838380828437600081840152601f19601f820116905080830192505050505050509192919290505050612810565b005b348015610a1e57600080fd5b50610a27612af3565b6040518082815260200191505060405180910390f35b348015610a4957600080fd5b50610a7660048036036020811015610a6057600080fd5b8101908080359060200190929190505050612af9565b604051808a815260200189815260200180602001888152602001871515151581526020018615151515815260200185151515158152602001848152602001838152602001828103825289818151815260200191508051906020019080838360005b83811015610af2578082015181840152602081019050610ad7565b50505050905090810190601f168015610b1f5780820380516001836020036101000a031916815260200191505b509a505050505050505050505060405180910390f35b348015610b4157600080fd5b50610b6e60048036036020811015610b5857600080fd5b8101908080359060200190929190505050612c06565b604051808681526020018060200180602001806020018573ffffffffffffffffffffffffffffffffffffffff1673ffffffffffffffffffffffffffffffffffffffff168152602001848103845288818151815260200191508051906020019080838360005b83811015610bee578082015181840152602081019050610bd3565b50505050905090810190601f168015610c1b5780820380516001836020036101000a031916815260200191505b50848103835287818151815260200191508051906020019080838360005b83811015610c54578082015181840152602081019050610c39565b50505050905090810190601f168015610c815780820380516001836020036101000a031916815260200191505b50848103825286818151815260200191508051906020019080838360005b83811015610cba578082015181840152602081019050610c9f565b50505050905090810190601f168015610ce75780820380516001836020036101000a031916815260200191505b509850505050505050505060405180910390f35b348015610d0757600080fd5b50610d10612eb3565b6040518082815260200191505060405180910390f35b348015610d3257600080fd5b50610df660048036036040811015610d4957600080fd5b810190808035906020019092919080359060200190640100000000811115610d7057600080fd5b820183602082011115610d8257600080fd5b80359060200191846001830284011164010000000083111715610da457600080fd5b91908080601f016020809104026020016040519081016040528093929190818152602001838380828437600081840152601f19601f820116905080830192505050505050509192919290505050612eb9565b005b348015610e0457600080fd5b50610e3d60048036036040811015610e1b57600080fd5b8101908080359060200190929190803515159060200190929190505050613268565b005b348015610e4b57600080fd5b50610e7860048036036020811015610e6257600080fd5b81019080803590602001909291905050506134f5565b604051808781526020018060200180602001868152602001806020018573ffffffffffffffffffffffffffffffffffffffff1673ffffffffffffffffffffffffffffffffffffffff168152602001848103845289818151815260200191508051906020019080838360005b83811015610efe578082015181840152602081019050610ee3565b50505050905090810190601f168015610f2b5780820380516001836020036101000a031916815260200191505b50848103835288818151815260200191508051906020019080838360005b83811015610f64578082015181840152602081019050610f49565b50505050905090810190601f168015610f915780820380516001836020036101000a031916815260200191505b50848103825286818151815260200191508051906020019080838360005b83811015610fca578082015181840152602081019050610faf565b50505050905090810190601f168015610ff75780820380516001836020036101000a031916815260200191505b50995050505050505050505060405180910390f35b6110386004803603602081101561102257600080fd5b8101908080359060200190929190505050613719565b005b34801561104657600080fd5b506110736004803603602081101561105d57600080fd5b8101908080359060200190929190505050613cf6565b6040518088815260200180602001806020018060200180602001806020018773ffffffffffffffffffffffffffffffffffffffff1673ffffffffffffffffffffffffffffffffffffffff16815260200186810386528c818151815260200191508051906020019080838360005b838110156110fb5780820151818401526020810190506110e0565b50505050905090810190601f1680156111285780820380516001836020036101000a031916815260200191505b5086810385528b818151815260200191508051906020019080838360005b83811015611161578082015181840152602081019050611146565b50505050905090810190601f16801561118e5780820380516001836020036101000a031916815260200191505b5086810384528a818151815260200191508051906020019080838360005b838110156111c75780820151818401526020810190506111ac565b50505050905090810190601f1680156111f45780820380516001836020036101000a031916815260200191505b50868103835289818151815260200191508051906020019080838360005b8381101561122d578082015181840152602081019050611212565b50505050905090810190601f16801561125a5780820380516001836020036101000a031916815260200191505b50868103825288818151815260200191508051906020019080838360005b83811015611293578082015181840152602081019050611278565b50505050905090810190601f1680156112c05780820380516001836020036101000a031916815260200191505b509c5050505050505050505050505060405180910390f35b3480156112e457600080fd5b506112ed614050565b6040518082815260200191505060405180910390f35b34801561130f57600080fd5b50611318614056565b6040518080602001828103825283818151815260200191508051906020019080838360005b8381101561135857808201518184015260208101905061133d565b50505050905090810190601f1680156113855780820380516001836020036101000a031916815260200191505b509250505060405180910390f35b34801561139f57600080fd5b506113a86140f4565b6040518082815260200191505060405180910390f35b3480156113ca57600080fd5b50611653600480360360a08110156113e157600080fd5b81019080803590602001906401000000008111156113fe57600080fd5b82018360208201111561141057600080fd5b8035906020019184600183028401116401000000008311171561143257600080fd5b91908080601f016020809104026020016040519081016040528093929190818152602001838380828437600081840152601f19601f8201169050808301925050505050505091929192908035906020019064010000000081111561149557600080fd5b8201836020820111156114a757600080fd5b803590602001918460018302840111640100000000831117156114c957600080fd5b91908080601f016020809104026020016040519081016040528093929190818152602001838380828437600081840152601f19601f8201169050808301925050505050505091929192908035906020019064010000000081111561152c57600080fd5b82018360208201111561153e57600080fd5b8035906020019184600183028401116401000000008311171561156057600080fd5b91908080601f016020809104026020016040519081016040528093929190818152602001838380828437600081840152601f19601f820116905080830192505050505050509192919290803590602001906401000000008111156115c357600080fd5b8201836020820111156115d557600080fd5b803590602001918460018302840111640100000000831117156115f757600080fd5b91908080601f016020809104026020016040519081016040528093929190818152602001838380828437600081840152601f19601f820116905080830192505050505050509192919290803590602001909291905050506140fa565b005b34801561166157600080fd5b50611977600480360360a081101561167857600080fd5b810190808035906020019064010000000081111561169557600080fd5b8201836020820111156116a757600080fd5b803590602001918460018302840111640100000000831117156116c957600080fd5b91908080601f016020809104026020016040519081016040528093929190818152602001838380828437600081840152601f19601f8201169050808301925050505050505091929192908035906020019064010000000081111561172c57600080fd5b82018360208201111561173e57600080fd5b8035906020019184600183028401116401000000008311171561176057600080fd5b91908080601f016020809104026020016040519081016040528093929190818152602001838380828437600081840152601f19601f820116905080830192505050505050509192919290803590602001906401000000008111156117c357600080fd5b8201836020820111156117d557600080fd5b803590602001918460018302840111640100000000831117156117f757600080fd5b91908080601f016020809104026020016040519081016040528093929190818152602001838380828437600081840152601f19601f8201169050808301925050505050505091929192908035906020019064010000000081111561185a57600080fd5b82018360208201111561186c57600080fd5b8035906020019184600183028401116401000000008311171561188e57600080fd5b91908080601f016020809104026020016040519081016040528093929190818152602001838380828437600081840152601f19601f820116905080830192505050505050509192919290803590602001906401000000008111156118f157600080fd5b82018360208201111561190357600080fd5b8035906020019184600183028401116401000000008311171561192557600080fd5b91908080601f016020809104026020016040519081016040528093929190818152602001838380828437600081840152601f19601f82011690508083019250505050505050919291929050505061446e565b005b34801561198557600080fd5b506119b26004803603602081101561199c57600080fd5b810190808035906020019092919050505061485a565b60405180888152602001806020018060200180602001806020018773ffffffffffffffffffffffffffffffffffffffff1673ffffffffffffffffffffffffffffffffffffffff16815260200186815260200185810385528b818151815260200191508051906020019080838360005b83811015611a3c578082015181840152602081019050611a21565b50505050905090810190601f168015611a695780820380516001836020036101000a031916815260200191505b5085810384528a818151815260200191508051906020019080838360005b83811015611aa2578082015181840152602081019050611a87565b50505050905090810190601f168015611acf5780820380516001836020036101000a031916815260200191505b50858103835289818151815260200191508051906020019080838360005b83811015611b08578082015181840152602081019050611aed565b50505050905090810190601f168015611b355780820380516001836020036101000a031916815260200191505b50858103825288818151815260200191508051906020019080838360005b83811015611b6e578082015181840152602081019050611b53565b50505050905090810190601f168015611b9b5780820380516001836020036101000a031916815260200191505b509b50505050505050505050505060405180910390f35b348015611bbe57600080fd5b50611bf760048036036040811015611bd557600080fd5b8101908080359060200190929190803515159060200190929190505050614bcb565b005b348015611c0557600080fd5b50611c0e614e58565b6040518082815260200191505060405180910390f35b348015611c3057600080fd5b50611c39614e5e565b6040518080602001828103825283818151815260200191508051906020019080838360005b83811015611c79578082015181840152602081019050611c5e565b50505050905090810190601f168015611ca65780820380516001836020036101000a031916815260200191505b509250505060405180910390f35b348015611cc057600080fd5b50611ced60048036036020811015611cd757600080fd5b8101908080359060200190929190505050614efc565b604051808681526020018060200180602001806020018573ffffffffffffffffffffffffffffffffffffffff1673ffffffffffffffffffffffffffffffffffffffff168152602001848103845288818151815260200191508051906020019080838360005b83811015611d6d578082015181840152602081019050611d52565b50505050905090810190601f168015611d9a5780820380516001836020036101000a031916815260200191505b50848103835287818151815260200191508051906020019080838360005b83811015611dd3578082015181840152602081019050611db8565b50505050905090810190601f168015611e005780820380516001836020036101000a031916815260200191505b50848103825286818151815260200191508051906020019080838360005b83811015611e39578082015181840152602081019050611e1e565b50505050905090810190601f168015611e665780820380516001836020036101000a031916815260200191505b509850505050505050505060405180910390f35b6003600081548092919060010191905055506040518060a0016040528060035481526020018481526020018381526020018281526020013373ffffffffffffffffffffffffffffffffffffffff16815250600860006003548152602001908152602001600020600082015181600001556020820151816001019080519060200190611f0692919061511a565b506040820151816002019080519060200190611f2392919061511a565b506060820151816003019080519060200190611f4092919061511a565b5060808201518160040160006101000a81548173ffffffffffffffffffffffffffffffffffffffff021916908373ffffffffffffffffffffffffffffffffffffffff1602179055509050507f8c5296f9a66c7f2f7505b81161eb9de0a0e7e4275029b1b9c83100017bc0906060035484848433604051808681526020018060200180602001806020018573ffffffffffffffffffffffffffffffffffffffff1673ffffffffffffffffffffffffffffffffffffffff168152602001848103845288818151815260200191508051906020019080838360005b83811015612033578082015181840152602081019050612018565b50505050905090810190601f1680156120605780820380516001836020036101000a031916815260200191505b50848103835287818151815260200191508051906020019080838360005b8381101561209957808201518184015260208101905061207e565b50505050905090810190601f1680156120c65780820380516001836020036101000a031916815260200191505b50848103825286818151815260200191508051906020019080838360005b838110156120ff5780820151818401526020810190506120e4565b50505050905090810190601f16801561212c5780820380516001836020036101000a031916815260200191505b509850505050505050505060405180910390a1505050565b6009602052806000526040600020600091509050806000015490806001018054600181600116156101000203166002900480601f0160208091040260200160405190810160405280929190818152602001828054600181600116156101000203166002900480156121f65780601f106121cb576101008083540402835291602001916121f6565b820191906000526020600020905b8154815290600101906020018083116121d957829003601f168201915b505050505090806002018054600181600116156101000203166002900480601f0160208091040260200160405190810160405280929190818152602001828054600181600116156101000203166002900480156122945780601f1061226957610100808354040283529160200191612294565b820191906000526020600020905b81548152906001019060200180831161227757829003601f168201915b505050505090806003018054600181600116156101000203166002900480601f0160208091040260200160405190810160405280929190818152602001828054600181600116156101000203166002900480156123325780601f1061230757610100808354040283529160200191612332565b820191906000526020600020905b81548152906001019060200180831161231557829003601f168201915b505050505090806004018054600181600116156101000203166002900480601f0160208091040260200160405190810160405280929190818152602001828054600181600116156101000203166002900480156123d05780601f106123a5576101008083540402835291602001916123d0565b820191906000526020600020905b8154815290600101906020018083116123b357829003601f168201915b5050505050908060050160009054906101000a900473ffffffffffffffffffffffffffffffffffffffff16908060060154905087565b60006060806060806060600061241a61519a565b600760008a81526020019081526020016000206040518060e001604052908160008201548152602001600182018054600181600116156101000203166002900480601f0160208091040260200160405190810160405280929190818152602001828054600181600116156101000203166002900480156124db5780601f106124b0576101008083540402835291602001916124db565b820191906000526020600020905b8154815290600101906020018083116124be57829003601f168201915b50505050508152602001600282018054600181600116156101000203166002900480601f01602080910402602001604051908101604052809291908181526020018280546001816001161561010002031660029004801561257d5780601f106125525761010080835404028352916020019161257d565b820191906000526020600020905b81548152906001019060200180831161256057829003601f168201915b50505050508152602001600382018054600181600116156101000203166002900480601f01602080910402602001604051908101604052809291908181526020018280546001816001161561010002031660029004801561261f5780601f106125f45761010080835404028352916020019161261f565b820191906000526020600020905b81548152906001019060200180831161260257829003601f168201915b50505050508152602001600482018054600181600116156101000203166002900480601f0160208091040260200160405190810160405280929190818152602001828054600181600116156101000203166002900480156126c15780601f10612696576101008083540402835291602001916126c1565b820191906000526020600020905b8154815290600101906020018083116126a457829003601f168201915b50505050508152602001600582018054600181600116156101000203166002900480601f0160208091040260200160405190810160405280929190818152602001828054600181600116156101000203166002900480156127635780601f1061273857610100808354040283529160200191612763565b820191906000526020600020905b81548152906001019060200180831161274657829003601f168201915b505050505081526020016006820160009054906101000a900473ffffffffffffffffffffffffffffffffffffffff1673ffffffffffffffffffffffffffffffffffffffff1673ffffffffffffffffffffffffffffffffffffffff16815250509050806000015181602001518260400151836060015184608001518560a001518660c00151859550849450839350829250819150975097509750975097509750975050919395979092949650565b6006600081548092919060010191905055506040518060c0016040528060065481526020018581526020018481526020018381526020018281526020013373ffffffffffffffffffffffffffffffffffffffff16815250600a600060065481526020019081526020016000206000820151816000015560208201518160010190805190602001906128a292919061511a565b5060408201518160020190805190602001906128bf92919061511a565b506060820151816003015560808201518160040190805190602001906128e692919061511a565b5060a08201518160050160006101000a81548173ffffffffffffffffffffffffffffffffffffffff021916908373ffffffffffffffffffffffffffffffffffffffff1602179055509050507f775bfdece810d611a8936f69d29e49e65122068832dc26d8a8ed212b82226c916006548585858533604051808781526020018060200180602001868152602001806020018573ffffffffffffffffffffffffffffffffffffffff1673ffffffffffffffffffffffffffffffffffffffff168152602001848103845289818151815260200191508051906020019080838360005b838110156129e05780820151818401526020810190506129c5565b50505050905090810190601f168015612a0d5780820380516001836020036101000a031916815260200191505b50848103835288818151815260200191508051906020019080838360005b83811015612a46578082015181840152602081019050612a2b565b50505050905090810190601f168015612a735780820380516001836020036101000a031916815260200191505b50848103825286818151815260200191508051906020019080838360005b83811015612aac578082015181840152602081019050612a91565b50505050905090810190601f168015612ad95780820380516001836020036101000a031916815260200191505b50995050505050505050505060405180910390a150505050565b60045481565b600b602052806000526040600020600091509050806000015490806001015490806002018054600181600116156101000203166002900480601f016020809104026020016040519081016040528092919081815260200182805460018160011615610100020316600290048015612bb15780601f10612b8657610100808354040283529160200191612bb1565b820191906000526020600020905b815481529060010190602001808311612b9457829003601f168201915b5050505050908060030154908060040160009054906101000a900460ff16908060040160019054906101000a900460ff16908060040160029054906101000a900460ff16908060050154908060060154905089565b600060608060606000612c176151ed565b600860008881526020019081526020016000206040518060a001604052908160008201548152602001600182018054600181600116156101000203166002900480601f016020809104026020016040519081016040528092919081815260200182805460018160011615610100020316600290048015612cd85780601f10612cad57610100808354040283529160200191612cd8565b820191906000526020600020905b815481529060010190602001808311612cbb57829003601f168201915b50505050508152602001600282018054600181600116156101000203166002900480601f016020809104026020016040519081016040528092919081815260200182805460018160011615610100020316600290048015612d7a5780601f10612d4f57610100808354040283529160200191612d7a565b820191906000526020600020905b815481529060010190602001808311612d5d57829003601f168201915b50505050508152602001600382018054600181600116156101000203166002900480601f016020809104026020016040519081016040528092919081815260200182805460018160011615610100020316600290048015612e1c5780601f10612df157610100808354040283529160200191612e1c565b820191906000526020600020905b815481529060010190602001808311612dff57829003601f168201915b505050505081526020016004820160009054906101000a900473ffffffffffffffffffffffffffffffffffffffff1673ffffffffffffffffffffffffffffffffffffffff1673ffffffffffffffffffffffffffffffffffffffff1681525050905080600001518160200151826040015183606001518460800151839350829250819150955095509550955095505091939590929450565b60055481565b600560008154809291906001019190505550612ed3615232565b600a60008481526020019081526020016000206040518060c001604052908160008201548152602001600182018054600181600116156101000203166002900480601f016020809104026020016040519081016040528092919081815260200182805460018160011615610100020316600290048015612f945780601f10612f6957610100808354040283529160200191612f94565b820191906000526020600020905b815481529060010190602001808311612f7757829003601f168201915b50505050508152602001600282018054600181600116156101000203166002900480601f0160208091040260200160405190810160405280929190818152602001828054600181600116156101000203166002900480156130365780601f1061300b57610100808354040283529160200191613036565b820191906000526020600020905b81548152906001019060200180831161301957829003601f168201915b5050505050815260200160038201548152602001600482018054600181600116156101000203166002900480601f0160208091040260200160405190810160405280929190818152602001828054600181600116156101000203166002900480156130e25780601f106130b7576101008083540402835291602001916130e2565b820191906000526020600020905b8154815290600101906020018083116130c557829003601f168201915b505050505081526020016005820160009054906101000a900473ffffffffffffffffffffffffffffffffffffffff1673ffffffffffffffffffffffffffffffffffffffff1673ffffffffffffffffffffffffffffffffffffffff1681525050905060405180610120016040528060055481526020018260000151815260200182602001518152602001826060015181526020016000151581526020016000151581526020016001151581526020014281526020016000815250600b60006005548152602001908152602001600020600082015181600001556020820151816001015560408201518160020190805190602001906131e092919061511a565b506060820151816003015560808201518160040160006101000a81548160ff02191690831515021790555060a08201518160040160016101000a81548160ff02191690831515021790555060c08201518160040160026101000a81548160ff02191690831515021790555060e082015181600501556101008201518160060155905050505050565b61327061527e565b600b6000848152602001908152602001600020604051806101200160405290816000820154815260200160018201548152602001600282018054600181600116156101000203166002900480601f01602080910402602001604051908101604052809291908181526020018280546001816001161561010002031660029004801561333c5780601f106133115761010080835404028352916020019161333c565b820191906000526020600020905b81548152906001019060200180831161331f57829003601f168201915b50505050508152602001600382015481526020016004820160009054906101000a900460ff161515151581526020016004820160019054906101000a900460ff161515151581526020016004820160029054906101000a900460ff16151515158152602001600582015481526020016006820154815250509050818160a0019015159081151581525050428161010001818152505080600b60008581526020019081526020016000206000820151816000015560208201518160010155604082015181600201908051906020019061341592919061511a565b506060820151816003015560808201518160040160006101000a81548160ff02191690831515021790555060a08201518160040160016101000a81548160ff02191690831515021790555060c08201518160040160026101000a81548160ff02191690831515021790555060e0820151816005015561010082015181600601559050507f135c5de72e393a237d2a5fc148db05a3caab37a368a94ee7c4a16afc32586fd681600001518260a001518361010001516040518084815260200183151515158152602001828152602001935050505060405180910390a1505050565b600a602052806000526040600020600091509050806000015490806001018054600181600116156101000203166002900480601f0160208091040260200160405190810160405280929190818152602001828054600181600116156101000203166002900480156135a75780601f1061357c576101008083540402835291602001916135a7565b820191906000526020600020905b81548152906001019060200180831161358a57829003601f168201915b505050505090806002018054600181600116156101000203166002900480601f0160208091040260200160405190810160405280929190818152602001828054600181600116156101000203166002900480156136455780601f1061361a57610100808354040283529160200191613645565b820191906000526020600020905b81548152906001019060200180831161362857829003601f168201915b505050505090806003015490806004018054600181600116156101000203166002900480601f0160208091040260200160405190810160405280929190818152602001828054600181600116156101000203166002900480156136e95780601f106136be576101008083540402835291602001916136e9565b820191906000526020600020905b8154815290600101906020018083116136cc57829003601f168201915b5050505050908060050160009054906101000a900473ffffffffffffffffffffffffffffffffffffffff16905086565b613721615232565b600a60008381526020019081526020016000206040518060c001604052908160008201548152602001600182018054600181600116156101000203166002900480601f0160208091040260200160405190810160405280929190818152602001828054600181600116156101000203166002900480156137e25780601f106137b7576101008083540402835291602001916137e2565b820191906000526020600020905b8154815290600101906020018083116137c557829003601f168201915b50505050508152602001600282018054600181600116156101000203166002900480601f0160208091040260200160405190810160405280929190818152602001828054600181600116156101000203166002900480156138845780601f1061385957610100808354040283529160200191613884565b820191906000526020600020905b81548152906001019060200180831161386757829003601f168201915b5050505050815260200160038201548152602001600482018054600181600116156101000203166002900480601f0160208091040260200160405190810160405280929190818152602001828054600181600116156101000203166002900480156139305780601f1061390557610100808354040283529160200191613930565b820191906000526020600020905b81548152906001019060200180831161391357829003601f168201915b505050505081526020016005820160009054906101000a900473ffffffffffffffffffffffffffffffffffffffff1673ffffffffffffffffffffffffffffffffffffffff1673ffffffffffffffffffffffffffffffffffffffff1681525050905060008160a001519050600082600001511180156139b45750600654826000015111155b613a26576040517f08c379a00000000000000000000000000000000000000000000000000000000081526004018080602001828103825260108152602001807f4e4f5420412050524f445543542049440000000000000000000000000000000081525060200191505060405180910390fd5b8160600151341015613aa0576040517f08c379a000000000000000000000000000000000000000000000000000000000815260040180806020018281038252601b8152602001807f596f7520446f6e2774204861766520456e6f756768204574686572000000000081525060200191505060405180910390fd5b3373ffffffffffffffffffffffffffffffffffffffff168173ffffffffffffffffffffffffffffffffffffffff161415613b42576040517f08c379a000000000000000000000000000000000000000000000000000000000815260040180806020018281038252601e8152602001807f53656c6c65722043616e277420507572636861736520486973204974656d000081525060200191505060405180910390fd5b81600a6000858152602001908152602001600020600082015181600001556020820151816001019080519060200190613b7c92919061511a565b506040820151816002019080519060200190613b9992919061511a565b50606082015181600301556080820151816004019080519060200190613bc092919061511a565b5060a08201518160050160006101000a81548173ffffffffffffffffffffffffffffffffffffffff021916908373ffffffffffffffffffffffffffffffffffffffff1602179055509050508073ffffffffffffffffffffffffffffffffffffffff166108fc349081150290604051600060405180830381858888f19350505050158015613c51573d6000803e3d6000fd5b507f735d394066f15c73a35004c29f92c2959aedc5d9040af0e7df48578a27469319338234604051808473ffffffffffffffffffffffffffffffffffffffff1673ffffffffffffffffffffffffffffffffffffffff1681526020018373ffffffffffffffffffffffffffffffffffffffff1673ffffffffffffffffffffffffffffffffffffffff168152602001828152602001935050505060405180910390a1505050565b6007602052806000526040600020600091509050806000015490806001018054600181600116156101000203166002900480601f016020809104026020016040519081016040528092919081815260200182805460018160011615610100020316600290048015613da85780601f10613d7d57610100808354040283529160200191613da8565b820191906000526020600020905b815481529060010190602001808311613d8b57829003601f168201915b505050505090806002018054600181600116156101000203166002900480601f016020809104026020016040519081016040528092919081815260200182805460018160011615610100020316600290048015613e465780601f10613e1b57610100808354040283529160200191613e46565b820191906000526020600020905b815481529060010190602001808311613e2957829003601f168201915b505050505090806003018054600181600116156101000203166002900480601f016020809104026020016040519081016040528092919081815260200182805460018160011615610100020316600290048015613ee45780601f10613eb957610100808354040283529160200191613ee4565b820191906000526020600020905b815481529060010190602001808311613ec757829003601f168201915b505050505090806004018054600181600116156101000203166002900480601f016020809104026020016040519081016040528092919081815260200182805460018160011615610100020316600290048015613f825780601f10613f5757610100808354040283529160200191613f82565b820191906000526020600020905b815481529060010190602001808311613f6557829003601f168201915b505050505090806005018054600181600116156101000203166002900480601f0160208091040260200160405190810160405280929190818152602001828054600181600116156101000203166002900480156140205780601f10613ff557610100808354040283529160200191614020565b820191906000526020600020905b81548152906001019060200180831161400357829003601f168201915b5050505050908060060160009054906101000a900473ffffffffffffffffffffffffffffffffffffffff16905087565b60035481565b60008054600181600116156101000203166002900480601f0160208091040260200160405190810160405280929190818152602001828054600181600116156101000203166002900480156140ec5780601f106140c1576101008083540402835291602001916140ec565b820191906000526020600020905b8154815290600101906020018083116140cf57829003601f168201915b505050505081565b60025481565b6004600081548092919060010191905055506040518060e0016040528060045481526020018681526020018581526020018481526020018381526020013373ffffffffffffffffffffffffffffffffffffffff1681526020018281525060096000600454815260200190815260200160002060008201518160000155602082015181600101908051906020019061419292919061511a565b5060408201518160020190805190602001906141af92919061511a565b5060608201518160030190805190602001906141cc92919061511a565b5060808201518160040190805190602001906141e992919061511a565b5060a08201518160050160006101000a81548173ffffffffffffffffffffffffffffffffffffffff021916908373ffffffffffffffffffffffffffffffffffffffff16021790555060c082015181600601559050507ffd274853b3082d2bbf6647d7a1552825ce34531f5c3ac1102d2ddbb4428717ac60045486868686338760405180888152602001806020018060200180602001806020018773ffffffffffffffffffffffffffffffffffffffff1673ffffffffffffffffffffffffffffffffffffffff16815260200186815260200185810385528b818151815260200191508051906020019080838360005b838110156142f25780820151818401526020810190506142d7565b50505050905090810190601f16801561431f5780820380516001836020036101000a031916815260200191505b5085810384528a818151815260200191508051906020019080838360005b8381101561435857808201518184015260208101905061433d565b50505050905090810190601f1680156143855780820380516001836020036101000a031916815260200191505b50858103835289818151815260200191508051906020019080838360005b838110156143be5780820151818401526020810190506143a3565b50505050905090810190601f1680156143eb5780820380516001836020036101000a031916815260200191505b50858103825288818151815260200191508051906020019080838360005b83811015614424578082015181840152602081019050614409565b50505050905090810190601f1680156144515780820380516001836020036101000a031916815260200191505b509b50505050505050505050505060405180910390a15050505050565b6002600081548092919060010191905055506040518060e0016040528060025481526020018681526020018581526020018481526020018381526020018281526020013373ffffffffffffffffffffffffffffffffffffffff1681525060076000600254815260200190815260200160002060008201518160000155602082015181600101908051906020019061450692919061511a565b50604082015181600201908051906020019061452392919061511a565b50606082015181600301908051906020019061454092919061511a565b50608082015181600401908051906020019061455d92919061511a565b5060a082015181600501908051906020019061457a92919061511a565b5060c08201518160060160006101000a81548173ffffffffffffffffffffffffffffffffffffffff021916908373ffffffffffffffffffffffffffffffffffffffff1602179055509050507f960bd46fec9bf5384fe0d02b4e746efb3428807ae15c8586b5a97e576fa8efb96002548686868686336040518088815260200180602001806020018060200180602001806020018773ffffffffffffffffffffffffffffffffffffffff1673ffffffffffffffffffffffffffffffffffffffff16815260200186810386528c818151815260200191508051906020019080838360005b8381101561467757808201518184015260208101905061465c565b50505050905090810190601f1680156146a45780820380516001836020036101000a031916815260200191505b5086810385528b818151815260200191508051906020019080838360005b838110156146dd5780820151818401526020810190506146c2565b50505050905090810190601f16801561470a5780820380516001836020036101000a031916815260200191505b5086810384528a818151815260200191508051906020019080838360005b83811015614743578082015181840152602081019050614728565b50505050905090810190601f1680156147705780820380516001836020036101000a031916815260200191505b50868103835289818151815260200191508051906020019080838360005b838110156147a957808201518184015260208101905061478e565b50505050905090810190601f1680156147d65780820380516001836020036101000a031916815260200191505b50868103825288818151815260200191508051906020019080838360005b8381101561480f5780820151818401526020810190506147f4565b50505050905090810190601f16801561483c5780820380516001836020036101000a031916815260200191505b509c5050505050505050505050505060405180910390a15050505050565b600060608060608060008061486d6152d0565b600960008a81526020019081526020016000206040518060e001604052908160008201548152602001600182018054600181600116156101000203166002900480601f01602080910402602001604051908101604052809291908181526020018280546001816001161561010002031660029004801561492e5780601f106149035761010080835404028352916020019161492e565b820191906000526020600020905b81548152906001019060200180831161491157829003601f168201915b50505050508152602001600282018054600181600116156101000203166002900480601f0160208091040260200160405190810160405280929190818152602001828054600181600116156101000203166002900480156149d05780601f106149a5576101008083540402835291602001916149d0565b820191906000526020600020905b8154815290600101906020018083116149b357829003601f168201915b50505050508152602001600382018054600181600116156101000203166002900480601f016020809104026020016040519081016040528092919081815260200182805460018160011615610100020316600290048015614a725780601f10614a4757610100808354040283529160200191614a72565b820191906000526020600020905b815481529060010190602001808311614a5557829003601f168201915b50505050508152602001600482018054600181600116156101000203166002900480601f016020809104026020016040519081016040528092919081815260200182805460018160011615610100020316600290048015614b145780601f10614ae957610100808354040283529160200191614b14565b820191906000526020600020905b815481529060010190602001808311614af757829003601f168201915b505050505081526020016005820160009054906101000a900473ffffffffffffffffffffffffffffffffffffffff1673ffffffffffffffffffffffffffffffffffffffff1673ffffffffffffffffffffffffffffffffffffffff1681526020016006820154815250509050806000015181602001518260400151836060015184608001518560a001518660c00151859550849450839350829250819150975097509750975097509750975050919395979092949650565b614bd361527e565b600b6000848152602001908152602001600020604051806101200160405290816000820154815260200160018201548152602001600282018054600181600116156101000203166002900480601f016020809104026020016040519081016040528092919081815260200182805460018160011615610100020316600290048015614c9f5780601f10614c7457610100808354040283529160200191614c9f565b820191906000526020600020905b815481529060010190602001808311614c8257829003601f168201915b50505050508152602001600382015481526020016004820160009054906101000a900460ff161515151581526020016004820160019054906101000a900460ff161515151581526020016004820160029054906101000a900460ff1615151515815260200160058201548152602001600682015481525050905081816080019015159081151581525050428161010001818152505080600b600085815260200190815260200160002060008201518160000155602082015181600101556040820151816002019080519060200190614d7892919061511a565b506060820151816003015560808201518160040160006101000a81548160ff02191690831515021790555060a08201518160040160016101000a81548160ff02191690831515021790555060c08201518160040160026101000a81548160ff02191690831515021790555060e0820151816005015561010082015181600601559050507f9315a06deb34e8c8b5964d7eb467368dc5a35bc3ee02127a4a5586334d453886816000015182608001518361010001516040518084815260200183151515158152602001828152602001935050505060405180910390a1505050565b60065481565b60018054600181600116156101000203166002900480601f016020809104026020016040519081016040528092919081815260200182805460018160011615610100020316600290048015614ef45780601f10614ec957610100808354040283529160200191614ef4565b820191906000526020600020905b815481529060010190602001808311614ed757829003601f168201915b505050505081565b6008602052806000526040600020600091509050806000015490806001018054600181600116156101000203166002900480601f016020809104026020016040519081016040528092919081815260200182805460018160011615610100020316600290048015614fae5780601f10614f8357610100808354040283529160200191614fae565b820191906000526020600020905b815481529060010190602001808311614f9157829003601f168201915b505050505090806002018054600181600116156101000203166002900480601f01602080910402602001604051908101604052809291908181526020018280546001816001161561010002031660029004801561504c5780601f106150215761010080835404028352916020019161504c565b820191906000526020600020905b81548152906001019060200180831161502f57829003601f168201915b505050505090806003018054600181600116156101000203166002900480601f0160208091040260200160405190810160405280929190818152602001828054600181600116156101000203166002900480156150ea5780601f106150bf576101008083540402835291602001916150ea565b820191906000526020600020905b8154815290600101906020018083116150cd57829003601f168201915b5050505050908060040160009054906101000a900473ffffffffffffffffffffffffffffffffffffffff16905085565b828054600181600116156101000203166002900490600052602060002090601f016020900481019282601f1061515b57805160ff1916838001178555615189565b82800160010185558215615189579182015b8281111561518857825182559160200191906001019061516d565b5b5090506151969190615323565b5090565b6040518060e00160405280600081526020016060815260200160608152602001606081526020016060815260200160608152602001600073ffffffffffffffffffffffffffffffffffffffff1681525090565b6040518060a0016040528060008152602001606081526020016060815260200160608152602001600073ffffffffffffffffffffffffffffffffffffffff1681525090565b6040518060c001604052806000815260200160608152602001606081526020016000815260200160608152602001600073ffffffffffffffffffffffffffffffffffffffff1681525090565b6040518061012001604052806000815260200160008152602001606081526020016000815260200160001515815260200160001515815260200160001515815260200160008152602001600081525090565b6040518060e001604052806000815260200160608152602001606081526020016060815260200160608152602001600073ffffffffffffffffffffffffffffffffffffffff168152602001600081525090565b61534591905b80821115615341576000816000905550600101615329565b5090565b9056fea265627a7a72315820e7f22fb728e3afec305d5dfdba0eca4bfce0645c535a42e5cdb7cb30dd20e47064736f6c634300050c0032",
  "source": "/*\n    PUBLIC PROPERTIES\n        - dapp_name\n        - dapp_builders\n        - farmers\n        - buyers\n        - products\n        - transport companies\n        - farmerCont\n        - buyerCount\n        - transportCompanyCount\n        - productsCount\n\n\n    PUBLIC METHODS\n        - CreateFarmer\n        - CreateBuyer\n        - CreateTransportCompanies\n        - CreateProduct\n\n        - getFarmerDetail\n        - getTransportCompanyDetail\n        - getBuyerDetail\n        - getProductDetail\n\n        - traceProduct\n        - store transactionHash\n*/\npragma solidity ^0.5.0;\n\ncontract MarketPlace{\n    string public dapp_name;\n    string public dapp_builder = \"@GoodnessEzeokafor\";\n    \n    uint public farmerCount =0;\n    uint public buyerCount =0;\n    uint public transportCompanyCount =0;\n    uint public traceCount =0;\n    uint public productCount = 0;\n    mapping (uint=>Farmer) public farmers;\n    mapping (uint=>Buyer) public buyers;\n    mapping (uint=>TransportCompany) public transport_companies;\n    mapping (uint=>Product) public products;\n    mapping (uint=>Trace) public tracing;\n    \n\n\n    /* START STRUCT  */\n\n    struct Farmer{\n        uint id;\n        string full_name;\n        string picture;\n        string farm_name;\n        string email_adddress;\n        string farm_description;\n        address farmer_wallet_address;\n    }\n\n\n    struct Buyer{\n        uint id;\n        string full_name;\n        string picture;\n        string email_address;\n        address buyer_wallet_address;\n    }\n\n\n    struct TransportCompany{\n        uint id;\n        string transport_name;\n        string transport_description;\n        string picture;       \n        string transport_address;\n        address payable transport_wallet_address;\n        uint price ; \n    }\n\n\n    struct Product{\n        uint id;\n        string product_name;\n        string product_description;\n        uint product_price;\n        string upload_image;\n        address payable seller;\n    }\n\n    struct Trace{\n        uint id;\n        uint price_id;\n        string  product_name;\n        uint product_price;\n        // uint transport_company_id;\n        bool left;\n        bool arrived;\n        bool pending; \n        uint timestamp;\n        uint updated;\n    }\n\n\n\n    /* END STRUCT  */\n\n    /*START EVENT */\n    event FarmCreated(\n        uint id,\n        string full_name,\n        string picture,\n        string farm_name,\n        string email_adddress,\n        string farm_description,\n        address farmer_wallet_address\n    );\n\n\n    event BuyerCreated(\n        uint id,\n        string full_name,\n        string picture,\n        string email_address,\n        address buyer_wallet_address\n    );\n    event ProductCreated(\n        uint id,\n        string product_name,\n        string product_description,\n        uint product_price,\n        string upload_image,\n        address payable seller\n    );\n    event TraceCreated(\n        uint id,\n        uint product_id,\n        string  product_name,\n        uint product_price,\n        // uint transport_company_id,\n        bool left,\n        bool arrived,\n        bool pending,\n        uint timestamp,\n        uint updated\n    ); \n    event TransportCompanyCreated(\n        uint id,\n        string transport_name,\n        string transport_description,\n        string picture,\n        string transport_address,\n        address transport_wallet_address,\n        uint price  \n    );\n    event BoughtProduct(address _from,address _to,uint amt);\n    event Left(uint id, bool left, uint updated);\n    event Arrived(uint id, bool arrived, uint updated);\n    \n    /* END EVENT */\n    /* START METHOD */\n    function createSellerProfile(\n        string memory _full_name,\n        string memory _picture,\n        string memory _farm_name,\n        string memory _email_address,\n        string memory _farm_description\n    )public{\n        farmerCount++;\n        farmers[farmerCount] = Farmer(\n            farmerCount,\n            _full_name,\n            _picture,\n            _farm_name,\n            _email_address,\n            _farm_description,\n            msg.sender\n        );\n\n        emit FarmCreated(\n            farmerCount,\n            _full_name,\n            _picture,\n            _farm_name,\n            _email_address,\n            _farm_description,\n            msg.sender\n        );\n\n    }\n\n\n    function createBuyer(\n\n        string memory _full_name,\n        string memory _picture,\n        string memory  _email_address\n        // address buyer_wallet_address\n    )public{\n        buyerCount++;\n        buyers[buyerCount] = Buyer(\n                buyerCount,\n                _full_name,\n                _picture,\n                _email_address,\n                msg.sender\n        );\n        emit BuyerCreated(\n            buyerCount,\n                _full_name,\n                _picture,\n                _email_address,\n                msg.sender\n        );\n    }\n\n    function createTransportCompany(\n        string memory _transport_name,\n        string memory _transport_description,\n        string memory _picture,\n        string memory _transport_address,\n        uint  _price\n    )public{\n        transportCompanyCount++;\n        transport_companies[transportCompanyCount] = TransportCompany(\n            transportCompanyCount,\n            _transport_name,\n            _transport_description,\n            _picture,\n            _transport_address,\n            msg.sender,\n            _price\n        );\n\n        emit TransportCompanyCreated(\n            transportCompanyCount,\n                _transport_name,\n                _transport_description,\n                _picture,\n                _transport_address,\n                msg.sender,\n                _price\n        );\n    }\n\n    function createTrace(\n        uint _product_id,\n        string memory transport_name\n    )public{\n        traceCount++;\n        Product memory product = products[_product_id];\n        tracing[traceCount] = Trace(\n            traceCount,\n            product.id,\n            product.product_name,\n            product.product_price,\n            false,\n            false,\n            true,\n            now,\n            0\n        );\n    }\n\n    function leftTrace(\n        uint _id,\n        bool status\n    )public{\n        Trace memory trace = tracing[_id];\n        trace.left = status;\n        trace.updated = now;\n        tracing[_id] = trace;\n        emit Left(trace.id,trace.left,trace.updated);\n    }\n    function arriveTrace(\n        uint _id,\n        bool status\n    )public{\n        Trace memory trace = tracing[_id];\n        trace.arrived = status;\n        trace.updated = now;\n        tracing[_id] = trace;\n        emit Arrived(trace.id,trace.arrived,trace.updated);\n    }\n\n\n\n    function getFarmerDetail(uint _id)public view returns(\n                                  uint id,\n                                  string memory,\n                                  string memory,\n                                  string memory,\n                                  string memory,\n                                  string memory,\n                                  address\n    ){\n        Farmer memory f = farmers [_id];\n        return (\n            f.id,\n            f.full_name,\n            f.picture,\n            f.farm_name,\n            f.email_adddress,\n            f.farm_description,\n            f.farmer_wallet_address\n        );\n    }\n\n\n    function getBuyerDetail(uint _id)public view returns(\n                uint,\n        string  memory,\n        string memory,\n        string memory ,\n        address\n    ){\n        Buyer memory b = buyers [_id];\n        return(\n            b.id,\n            b.full_name,\n            b.picture,\n            b.email_address,\n            b.buyer_wallet_address\n        );\n    }\n\n\n    function getTransportCompanyDetaul(uint _id)public view returns(\n        uint id,\n        string memory,\n        string memory,\n        string memory, \n        string memory,\n        address,\n        uint\n    ){\n        TransportCompany memory t = transport_companies [_id];\n        return (\n            t.id,\n            t.transport_name,\n            t.transport_description,\n            t.picture,\n            t.transport_address,\n            t.transport_wallet_address,\n            t.price\n        );\n    }   \n\n\n\n    function createProduct(\n        string memory _product_name,\n        string memory _product_description,\n        uint _price,\n        string memory _upload_image\n    )public{\n        productCount++;\n        products[productCount]= Product(\n            productCount,\n            _product_name,\n            _product_description,\n            _price,\n            _upload_image,\n            msg.sender\n        );\n        emit ProductCreated(\n              productCount,\n            _product_name,\n            _product_description,\n            _price,\n            _upload_image,\n            msg.sender\n        );\n    }\n\n    function buyProduct(uint _id) public payable{\n        // fetch the product\n                // Product memory p = products[_id];\n\n        Product memory _product = products[_id];\n        // fetch the owner\n        address payable _seller = _product.seller;\n        // make sure the product is is valid\n        require(_product.id > 0 && _product.id <= productCount,\"NOT A PRODUCT ID\");\n        // require that there is enough Ether in the transaction\n        require(msg.value >= _product.product_price,\"You Don't Have Enough Ether\");\n        // require that the buyer is not the seller\n        require(_seller != msg.sender,\"Seller Can't Purchase His Item\");\n        // transfer ownership\n        // _product.owner = msg.sender;\n        // mark as purchased\n        //update the product\n        products[_id] = _product;\n        // pay the seller by paying them ether\n        address(_seller).transfer(msg.value); \n        // trigger an event\n        emit BoughtProduct(\n            msg.sender,   \n            _seller,\n            msg.value\n        );\n    }\n}",
  "sourcePath": "/home/goodness/Development/ethereum/market-dapp/src/contracts/MarketPlace.sol",
  "compiler": {
    "name": "solc",
    "version": "0.5.12+commit.7709ece9.Emscripten.clang"
  },
  "schemaVersion": "3.0.19",
  "updatedAt": "2020-01-10T14:25:05.315Z",
  "networkType": "ethereum",
  "devdoc": {
    "methods": {}
  },
  "userdoc": {
    "methods": {}
  }
}