{
  "contractName": "MarketPlace",
  "abi": [
    {
      "anonymous": false,
      "inputs": [
        {
          "indexed": false,
          "internalType": "address",
          "name": "_from",
          "type": "address"
        },
        {
          "indexed": false,
          "internalType": "address",
          "name": "_to",
          "type": "address"
        },
        {
          "indexed": false,
          "internalType": "uint256",
          "name": "amt",
          "type": "uint256"
        }
      ],
      "name": "BoughtProduct",
      "type": "event"
    },
    {
      "anonymous": false,
      "inputs": [
        {
          "indexed": false,
          "internalType": "uint256",
          "name": "id",
          "type": "uint256"
        },
        {
          "indexed": false,
          "internalType": "string",
          "name": "full_name",
          "type": "string"
        },
        {
          "indexed": false,
          "internalType": "string",
          "name": "picture",
          "type": "string"
        },
        {
          "indexed": false,
          "internalType": "string",
          "name": "email_address",
          "type": "string"
        },
        {
          "indexed": false,
          "internalType": "address",
          "name": "buyer_wallet_address",
          "type": "address"
        }
      ],
      "name": "BuyerCreated",
      "type": "event"
    },
    {
      "anonymous": false,
      "inputs": [
        {
          "indexed": false,
          "internalType": "uint256",
          "name": "id",
          "type": "uint256"
        },
        {
          "indexed": false,
          "internalType": "string",
          "name": "full_name",
          "type": "string"
        },
        {
          "indexed": false,
          "internalType": "string",
          "name": "picture",
          "type": "string"
        },
        {
          "indexed": false,
          "internalType": "string",
          "name": "farm_name",
          "type": "string"
        },
        {
          "indexed": false,
          "internalType": "string",
          "name": "email_adddress",
          "type": "string"
        },
        {
          "indexed": false,
          "internalType": "string",
          "name": "farm_description",
          "type": "string"
        },
        {
          "indexed": false,
          "internalType": "address",
          "name": "farmer_wallet_address",
          "type": "address"
        }
      ],
      "name": "FarmCreated",
      "type": "event"
    },
    {
      "anonymous": false,
      "inputs": [
        {
          "indexed": false,
          "internalType": "uint256",
          "name": "id",
          "type": "uint256"
        },
        {
          "indexed": false,
          "internalType": "string",
          "name": "product_name",
          "type": "string"
        },
        {
          "indexed": false,
          "internalType": "string",
          "name": "product_description",
          "type": "string"
        },
        {
          "indexed": false,
          "internalType": "uint256",
          "name": "product_price",
          "type": "uint256"
        },
        {
          "indexed": false,
          "internalType": "string",
          "name": "upload_image",
          "type": "string"
        },
        {
          "indexed": false,
          "internalType": "address payable",
          "name": "seller",
          "type": "address"
        }
      ],
      "name": "ProductCreated",
      "type": "event"
    },
    {
      "anonymous": false,
      "inputs": [
        {
          "indexed": false,
          "internalType": "uint256",
          "name": "id",
          "type": "uint256"
        },
        {
          "indexed": false,
          "internalType": "string",
          "name": "transport_name",
          "type": "string"
        },
        {
          "indexed": false,
          "internalType": "string",
          "name": "transport_description",
          "type": "string"
        },
        {
          "indexed": false,
          "internalType": "string",
          "name": "picture",
          "type": "string"
        },
        {
          "indexed": false,
          "internalType": "string",
          "name": "transport_address",
          "type": "string"
        },
        {
          "indexed": false,
          "internalType": "address",
          "name": "transport_wallet_address",
          "type": "address"
        },
        {
          "indexed": false,
          "internalType": "uint256",
          "name": "price",
          "type": "uint256"
        }
      ],
      "name": "TransportCompanyCreated",
      "type": "event"
    },
    {
      "constant": true,
      "inputs": [],
      "name": "buyerCount",
      "outputs": [
        {
          "internalType": "uint256",
          "name": "",
          "type": "uint256"
        }
      ],
      "payable": false,
      "stateMutability": "view",
      "type": "function"
    },
    {
      "constant": true,
      "inputs": [
        {
          "internalType": "uint256",
          "name": "",
          "type": "uint256"
        }
      ],
      "name": "buyers",
      "outputs": [
        {
          "internalType": "uint256",
          "name": "id",
          "type": "uint256"
        },
        {
          "internalType": "string",
          "name": "full_name",
          "type": "string"
        },
        {
          "internalType": "string",
          "name": "picture",
          "type": "string"
        },
        {
          "internalType": "string",
          "name": "email_address",
          "type": "string"
        },
        {
          "internalType": "address",
          "name": "buyer_wallet_address",
          "type": "address"
        }
      ],
      "payable": false,
      "stateMutability": "view",
      "type": "function"
    },
    {
      "constant": true,
      "inputs": [],
      "name": "dapp_builder",
      "outputs": [
        {
          "internalType": "string",
          "name": "",
          "type": "string"
        }
      ],
      "payable": false,
      "stateMutability": "view",
      "type": "function"
    },
    {
      "constant": true,
      "inputs": [],
      "name": "dapp_name",
      "outputs": [
        {
          "internalType": "string",
          "name": "",
          "type": "string"
        }
      ],
      "payable": false,
      "stateMutability": "view",
      "type": "function"
    },
    {
      "constant": true,
      "inputs": [],
      "name": "farmerCount",
      "outputs": [
        {
          "internalType": "uint256",
          "name": "",
          "type": "uint256"
        }
      ],
      "payable": false,
      "stateMutability": "view",
      "type": "function"
    },
    {
      "constant": true,
      "inputs": [
        {
          "internalType": "uint256",
          "name": "",
          "type": "uint256"
        }
      ],
      "name": "farmers",
      "outputs": [
        {
          "internalType": "uint256",
          "name": "id",
          "type": "uint256"
        },
        {
          "internalType": "string",
          "name": "full_name",
          "type": "string"
        },
        {
          "internalType": "string",
          "name": "picture",
          "type": "string"
        },
        {
          "internalType": "string",
          "name": "farm_name",
          "type": "string"
        },
        {
          "internalType": "string",
          "name": "email_adddress",
          "type": "string"
        },
        {
          "internalType": "string",
          "name": "farm_description",
          "type": "string"
        },
        {
          "internalType": "address",
          "name": "farmer_wallet_address",
          "type": "address"
        }
      ],
      "payable": false,
      "stateMutability": "view",
      "type": "function"
    },
    {
      "constant": true,
      "inputs": [],
      "name": "productCount",
      "outputs": [
        {
          "internalType": "uint256",
          "name": "",
          "type": "uint256"
        }
      ],
      "payable": false,
      "stateMutability": "view",
      "type": "function"
    },
    {
      "constant": true,
      "inputs": [
        {
          "internalType": "uint256",
          "name": "",
          "type": "uint256"
        }
      ],
      "name": "products",
      "outputs": [
        {
          "internalType": "uint256",
          "name": "id",
          "type": "uint256"
        },
        {
          "internalType": "string",
          "name": "product_name",
          "type": "string"
        },
        {
          "internalType": "string",
          "name": "product_description",
          "type": "string"
        },
        {
          "internalType": "uint256",
          "name": "product_price",
          "type": "uint256"
        },
        {
          "internalType": "string",
          "name": "upload_image",
          "type": "string"
        },
        {
          "internalType": "address payable",
          "name": "seller",
          "type": "address"
        }
      ],
      "payable": false,
      "stateMutability": "view",
      "type": "function"
    },
    {
      "constant": true,
      "inputs": [],
      "name": "transportCompanyCount",
      "outputs": [
        {
          "internalType": "uint256",
          "name": "",
          "type": "uint256"
        }
      ],
      "payable": false,
      "stateMutability": "view",
      "type": "function"
    },
    {
      "constant": true,
      "inputs": [
        {
          "internalType": "uint256",
          "name": "",
          "type": "uint256"
        }
      ],
      "name": "transport_companies",
      "outputs": [
        {
          "internalType": "uint256",
          "name": "id",
          "type": "uint256"
        },
        {
          "internalType": "string",
          "name": "transport_name",
          "type": "string"
        },
        {
          "internalType": "string",
          "name": "transport_description",
          "type": "string"
        },
        {
          "internalType": "string",
          "name": "picture",
          "type": "string"
        },
        {
          "internalType": "string",
          "name": "transport_address",
          "type": "string"
        },
        {
          "internalType": "address payable",
          "name": "transport_wallet_address",
          "type": "address"
        },
        {
          "internalType": "uint256",
          "name": "price",
          "type": "uint256"
        }
      ],
      "payable": false,
      "stateMutability": "view",
      "type": "function"
    },
    {
      "constant": false,
      "inputs": [
        {
          "internalType": "string",
          "name": "_full_name",
          "type": "string"
        },
        {
          "internalType": "string",
          "name": "_picture",
          "type": "string"
        },
        {
          "internalType": "string",
          "name": "_farm_name",
          "type": "string"
        },
        {
          "internalType": "string",
          "name": "_email_address",
          "type": "string"
        },
        {
          "internalType": "string",
          "name": "_farm_description",
          "type": "string"
        }
      ],
      "name": "createSellerProfile",
      "outputs": [],
      "payable": false,
      "stateMutability": "nonpayable",
      "type": "function"
    },
    {
      "constant": false,
      "inputs": [
        {
          "internalType": "string",
          "name": "_full_name",
          "type": "string"
        },
        {
          "internalType": "string",
          "name": "_picture",
          "type": "string"
        },
        {
          "internalType": "string",
          "name": "_email_address",
          "type": "string"
        }
      ],
      "name": "createBuyer",
      "outputs": [],
      "payable": false,
      "stateMutability": "nonpayable",
      "type": "function"
    },
    {
      "constant": false,
      "inputs": [
        {
          "internalType": "string",
          "name": "_transport_name",
          "type": "string"
        },
        {
          "internalType": "string",
          "name": "_transport_description",
          "type": "string"
        },
        {
          "internalType": "string",
          "name": "_picture",
          "type": "string"
        },
        {
          "internalType": "string",
          "name": "_transport_address",
          "type": "string"
        },
        {
          "internalType": "uint256",
          "name": "_price",
          "type": "uint256"
        }
      ],
      "name": "createTransportCompany",
      "outputs": [],
      "payable": false,
      "stateMutability": "nonpayable",
      "type": "function"
    },
    {
      "constant": true,
      "inputs": [
        {
          "internalType": "uint256",
          "name": "_id",
          "type": "uint256"
        }
      ],
      "name": "getFarmerDetail",
      "outputs": [
        {
          "internalType": "uint256",
          "name": "id",
          "type": "uint256"
        },
        {
          "internalType": "string",
          "name": "",
          "type": "string"
        },
        {
          "internalType": "string",
          "name": "",
          "type": "string"
        },
        {
          "internalType": "string",
          "name": "",
          "type": "string"
        },
        {
          "internalType": "string",
          "name": "",
          "type": "string"
        },
        {
          "internalType": "string",
          "name": "",
          "type": "string"
        },
        {
          "internalType": "address",
          "name": "",
          "type": "address"
        }
      ],
      "payable": false,
      "stateMutability": "view",
      "type": "function"
    },
    {
      "constant": true,
      "inputs": [
        {
          "internalType": "uint256",
          "name": "_id",
          "type": "uint256"
        }
      ],
      "name": "getProductDetail",
      "outputs": [
        {
          "internalType": "uint256",
          "name": "id",
          "type": "uint256"
        },
        {
          "internalType": "string",
          "name": "",
          "type": "string"
        },
        {
          "internalType": "string",
          "name": "",
          "type": "string"
        },
        {
          "internalType": "uint256",
          "name": "",
          "type": "uint256"
        },
        {
          "internalType": "address",
          "name": "",
          "type": "address"
        }
      ],
      "payable": false,
      "stateMutability": "view",
      "type": "function"
    },
    {
      "constant": true,
      "inputs": [
        {
          "internalType": "uint256",
          "name": "_id",
          "type": "uint256"
        }
      ],
      "name": "getBuyerDetail",
      "outputs": [
        {
          "internalType": "uint256",
          "name": "",
          "type": "uint256"
        },
        {
          "internalType": "string",
          "name": "",
          "type": "string"
        },
        {
          "internalType": "string",
          "name": "",
          "type": "string"
        },
        {
          "internalType": "string",
          "name": "",
          "type": "string"
        },
        {
          "internalType": "address",
          "name": "",
          "type": "address"
        }
      ],
      "payable": false,
      "stateMutability": "view",
      "type": "function"
    },
    {
      "constant": true,
      "inputs": [
        {
          "internalType": "uint256",
          "name": "_id",
          "type": "uint256"
        }
      ],
      "name": "getTransportCompanyDetail",
      "outputs": [
        {
          "internalType": "uint256",
          "name": "id",
          "type": "uint256"
        },
        {
          "internalType": "string",
          "name": "",
          "type": "string"
        },
        {
          "internalType": "string",
          "name": "",
          "type": "string"
        },
        {
          "internalType": "string",
          "name": "",
          "type": "string"
        },
        {
          "internalType": "string",
          "name": "",
          "type": "string"
        },
        {
          "internalType": "address",
          "name": "",
          "type": "address"
        },
        {
          "internalType": "uint256",
          "name": "",
          "type": "uint256"
        }
      ],
      "payable": false,
      "stateMutability": "view",
      "type": "function"
    },
    {
      "constant": false,
      "inputs": [
        {
          "internalType": "string",
          "name": "_product_name",
          "type": "string"
        },
        {
          "internalType": "string",
          "name": "_product_description",
          "type": "string"
        },
        {
          "internalType": "uint256",
          "name": "_price",
          "type": "uint256"
        },
        {
          "internalType": "string",
          "name": "_upload_image",
          "type": "string"
        }
      ],
      "name": "createProduct",
      "outputs": [],
      "payable": false,
      "stateMutability": "nonpayable",
      "type": "function"
    },
    {
      "constant": false,
      "inputs": [
        {
          "internalType": "uint256",
          "name": "_id",
          "type": "uint256"
        }
      ],
      "name": "buyProduct",
      "outputs": [],
      "payable": true,
      "stateMutability": "payable",
      "type": "function"
    }
  ],
  "bytecode": "0x60806040526040518060400160405280600881526020017f4368796e6173616800000000000000000000000000000000000000000000000081525060019080519060200190620000519291906200007a565b5060006002556000600355600060045560006005553480156200007357600080fd5b5062000129565b828054600181600116156101000203166002900490600052602060002090601f016020900481019282601f10620000bd57805160ff1916838001178555620000ee565b82800160010185558215620000ee579182015b82811115620000ed578251825591602001919060010190620000d0565b5b509050620000fd919062000101565b5090565b6200012691905b808211156200012257600081600090555060010162000108565b5090565b90565b614ab780620001396000396000f3fe6080604052600436106101145760003560e01c80638afdd669116100a0578063c4b8e3fc11610064578063c4b8e3fc146114f0578063c604a79a14611787578063e0f6ef8714611aab578063f18ee5a214611ad6578063f2aa821814611b6657610114565b80638afdd66914610f3357806395c4e510146111d15780639e0cea051461140a578063b3ea346b14611435578063bd45b397146114c557610114565b8063395ae18f116100e7578063395ae18f146109e65780634b0b599214610a115780635ddc949c14610bd75780637acc0b2014610d385780638642269e14610f0557610114565b806301e57dec146101195780630413a4ad1461030f5780630f709b9a1461054857806312c89196146107e6575b600080fd5b34801561012557600080fd5b5061030d6004803603606081101561013c57600080fd5b810190808035906020019064010000000081111561015957600080fd5b82018360208201111561016b57600080fd5b8035906020019184600183028401116401000000008311171561018d57600080fd5b91908080601f016020809104026020016040519081016040528093929190818152602001838380828437600081840152601f19601f820116905080830192505050505050509192919290803590602001906401000000008111156101f057600080fd5b82018360208201111561020257600080fd5b8035906020019184600183028401116401000000008311171561022457600080fd5b91908080601f016020809104026020016040519081016040528093929190818152602001838380828437600081840152601f19601f8201169050808301925050505050505091929192908035906020019064010000000081111561028757600080fd5b82018360208201111561029957600080fd5b803590602001918460018302840111640100000000831117156102bb57600080fd5b91908080601f016020809104026020016040519081016040528093929190818152602001838380828437600081840152601f19601f820116905080830192505050505050509192919290505050611d2c565b005b34801561031b57600080fd5b506103486004803603602081101561033257600080fd5b8101908080359060200190929190505050611ff6565b60405180888152602001806020018060200180602001806020018773ffffffffffffffffffffffffffffffffffffffff1673ffffffffffffffffffffffffffffffffffffffff16815260200186815260200185810385528b818151815260200191508051906020019080838360005b838110156103d25780820151818401526020810190506103b7565b50505050905090810190601f1680156103ff5780820380516001836020036101000a031916815260200191505b5085810384528a818151815260200191508051906020019080838360005b8381101561043857808201518184015260208101905061041d565b50505050905090810190601f1680156104655780820380516001836020036101000a031916815260200191505b50858103835289818151815260200191508051906020019080838360005b8381101561049e578082015181840152602081019050610483565b50505050905090810190601f1680156104cb5780820380516001836020036101000a031916815260200191505b50858103825288818151815260200191508051906020019080838360005b838110156105045780820151818401526020810190506104e9565b50505050905090810190601f1680156105315780820380516001836020036101000a031916815260200191505b509b50505050505050505050505060405180910390f35b34801561055457600080fd5b506105816004803603602081101561056b57600080fd5b81019080803590602001909291905050506122b8565b6040518088815260200180602001806020018060200180602001806020018773ffffffffffffffffffffffffffffffffffffffff1673ffffffffffffffffffffffffffffffffffffffff16815260200186810386528c818151815260200191508051906020019080838360005b838110156106095780820151818401526020810190506105ee565b50505050905090810190601f1680156106365780820380516001836020036101000a031916815260200191505b5086810385528b818151815260200191508051906020019080838360005b8381101561066f578082015181840152602081019050610654565b50505050905090810190601f16801561069c5780820380516001836020036101000a031916815260200191505b5086810384528a818151815260200191508051906020019080838360005b838110156106d55780820151818401526020810190506106ba565b50505050905090810190601f1680156107025780820380516001836020036101000a031916815260200191505b50868103835289818151815260200191508051906020019080838360005b8381101561073b578082015181840152602081019050610720565b50505050905090810190601f1680156107685780820380516001836020036101000a031916815260200191505b50868103825288818151815260200191508051906020019080838360005b838110156107a1578082015181840152602081019050610786565b50505050905090810190601f1680156107ce5780820380516001836020036101000a031916815260200191505b509c5050505050505050505050505060405180910390f35b3480156107f257600080fd5b506109e46004803603608081101561080957600080fd5b810190808035906020019064010000000081111561082657600080fd5b82018360208201111561083857600080fd5b8035906020019184600183028401116401000000008311171561085a57600080fd5b91908080601f016020809104026020016040519081016040528093929190818152602001838380828437600081840152601f19601f820116905080830192505050505050509192919290803590602001906401000000008111156108bd57600080fd5b8201836020820111156108cf57600080fd5b803590602001918460018302840111640100000000831117156108f157600080fd5b91908080601f016020809104026020016040519081016040528093929190818152602001838380828437600081840152601f19601f820116905080830192505050505050509192919290803590602001909291908035906020019064010000000081111561095e57600080fd5b82018360208201111561097057600080fd5b8035906020019184600183028401116401000000008311171561099257600080fd5b91908080601f016020809104026020016040519081016040528093929190818152602001838380828437600081840152601f19601f8201169050808301925050505050505091929192905050506126c2565b005b3480156109f257600080fd5b506109fb6129a5565b6040518082815260200191505060405180910390f35b348015610a1d57600080fd5b50610a4a60048036036020811015610a3457600080fd5b81019080803590602001909291905050506129ab565b604051808681526020018060200180602001806020018573ffffffffffffffffffffffffffffffffffffffff1673ffffffffffffffffffffffffffffffffffffffff168152602001848103845288818151815260200191508051906020019080838360005b83811015610aca578082015181840152602081019050610aaf565b50505050905090810190601f168015610af75780820380516001836020036101000a031916815260200191505b50848103835287818151815260200191508051906020019080838360005b83811015610b30578082015181840152602081019050610b15565b50505050905090810190601f168015610b5d5780820380516001836020036101000a031916815260200191505b50848103825286818151815260200191508051906020019080838360005b83811015610b96578082015181840152602081019050610b7b565b50505050905090810190601f168015610bc35780820380516001836020036101000a031916815260200191505b509850505050505050505060405180910390f35b348015610be357600080fd5b50610c1060048036036020811015610bfa57600080fd5b8101908080359060200190929190505050612c58565b6040518086815260200180602001806020018581526020018473ffffffffffffffffffffffffffffffffffffffff1673ffffffffffffffffffffffffffffffffffffffff168152602001838103835287818151815260200191508051906020019080838360005b83811015610c92578082015181840152602081019050610c77565b50505050905090810190601f168015610cbf5780820380516001836020036101000a031916815260200191505b50838103825286818151815260200191508051906020019080838360005b83811015610cf8578082015181840152602081019050610cdd565b50505050905090810190601f168015610d255780820380516001836020036101000a031916815260200191505b5097505050505050505060405180910390f35b348015610d4457600080fd5b50610d7160048036036020811015610d5b57600080fd5b8101908080359060200190929190505050612f0e565b604051808781526020018060200180602001868152602001806020018573ffffffffffffffffffffffffffffffffffffffff1673ffffffffffffffffffffffffffffffffffffffff168152602001848103845289818151815260200191508051906020019080838360005b83811015610df7578082015181840152602081019050610ddc565b50505050905090810190601f168015610e245780820380516001836020036101000a031916815260200191505b50848103835288818151815260200191508051906020019080838360005b83811015610e5d578082015181840152602081019050610e42565b50505050905090810190601f168015610e8a5780820380516001836020036101000a031916815260200191505b50848103825286818151815260200191508051906020019080838360005b83811015610ec3578082015181840152602081019050610ea8565b50505050905090810190601f168015610ef05780820380516001836020036101000a031916815260200191505b50995050505050505050505060405180910390f35b610f3160048036036020811015610f1b57600080fd5b8101908080359060200190929190505050613132565b005b348015610f3f57600080fd5b50610f6c60048036036020811015610f5657600080fd5b810190808035906020019092919050505061370f565b6040518088815260200180602001806020018060200180602001806020018773ffffffffffffffffffffffffffffffffffffffff1673ffffffffffffffffffffffffffffffffffffffff16815260200186810386528c818151815260200191508051906020019080838360005b83811015610ff4578082015181840152602081019050610fd9565b50505050905090810190601f1680156110215780820380516001836020036101000a031916815260200191505b5086810385528b818151815260200191508051906020019080838360005b8381101561105a57808201518184015260208101905061103f565b50505050905090810190601f1680156110875780820380516001836020036101000a031916815260200191505b5086810384528a818151815260200191508051906020019080838360005b838110156110c05780820151818401526020810190506110a5565b50505050905090810190601f1680156110ed5780820380516001836020036101000a031916815260200191505b50868103835289818151815260200191508051906020019080838360005b8381101561112657808201518184015260208101905061110b565b50505050905090810190601f1680156111535780820380516001836020036101000a031916815260200191505b50868103825288818151815260200191508051906020019080838360005b8381101561118c578082015181840152602081019050611171565b50505050905090810190601f1680156111b95780820380516001836020036101000a031916815260200191505b509c5050505050505050505050505060405180910390f35b3480156111dd57600080fd5b5061120a600480360360208110156111f457600080fd5b8101908080359060200190929190505050613a69565b60405180888152602001806020018060200180602001806020018773ffffffffffffffffffffffffffffffffffffffff1673ffffffffffffffffffffffffffffffffffffffff16815260200186815260200185810385528b818151815260200191508051906020019080838360005b83811015611294578082015181840152602081019050611279565b50505050905090810190601f1680156112c15780820380516001836020036101000a031916815260200191505b5085810384528a818151815260200191508051906020019080838360005b838110156112fa5780820151818401526020810190506112df565b50505050905090810190601f1680156113275780820380516001836020036101000a031916815260200191505b50858103835289818151815260200191508051906020019080838360005b83811015611360578082015181840152602081019050611345565b50505050905090810190601f16801561138d5780820380516001836020036101000a031916815260200191505b50858103825288818151815260200191508051906020019080838360005b838110156113c65780820151818401526020810190506113ab565b50505050905090810190601f1680156113f35780820380516001836020036101000a031916815260200191505b509b50505050505050505050505060405180910390f35b34801561141657600080fd5b5061141f613dda565b6040518082815260200191505060405180910390f35b34801561144157600080fd5b5061144a613de0565b6040518080602001828103825283818151815260200191508051906020019080838360005b8381101561148a57808201518184015260208101905061146f565b50505050905090810190601f1680156114b75780820380516001836020036101000a031916815260200191505b509250505060405180910390f35b3480156114d157600080fd5b506114da613e7e565b6040518082815260200191505060405180910390f35b3480156114fc57600080fd5b50611785600480360360a081101561151357600080fd5b810190808035906020019064010000000081111561153057600080fd5b82018360208201111561154257600080fd5b8035906020019184600183028401116401000000008311171561156457600080fd5b91908080601f016020809104026020016040519081016040528093929190818152602001838380828437600081840152601f19601f820116905080830192505050505050509192919290803590602001906401000000008111156115c757600080fd5b8201836020820111156115d957600080fd5b803590602001918460018302840111640100000000831117156115fb57600080fd5b91908080601f016020809104026020016040519081016040528093929190818152602001838380828437600081840152601f19601f8201169050808301925050505050505091929192908035906020019064010000000081111561165e57600080fd5b82018360208201111561167057600080fd5b8035906020019184600183028401116401000000008311171561169257600080fd5b91908080601f016020809104026020016040519081016040528093929190818152602001838380828437600081840152601f19601f820116905080830192505050505050509192919290803590602001906401000000008111156116f557600080fd5b82018360208201111561170757600080fd5b8035906020019184600183028401116401000000008311171561172957600080fd5b91908080601f016020809104026020016040519081016040528093929190818152602001838380828437600081840152601f19601f82011690508083019250505050505050919291929080359060200190929190505050613e84565b005b34801561179357600080fd5b50611aa9600480360360a08110156117aa57600080fd5b81019080803590602001906401000000008111156117c757600080fd5b8201836020820111156117d957600080fd5b803590602001918460018302840111640100000000831117156117fb57600080fd5b91908080601f016020809104026020016040519081016040528093929190818152602001838380828437600081840152601f19601f8201169050808301925050505050505091929192908035906020019064010000000081111561185e57600080fd5b82018360208201111561187057600080fd5b8035906020019184600183028401116401000000008311171561189257600080fd5b91908080601f016020809104026020016040519081016040528093929190818152602001838380828437600081840152601f19601f820116905080830192505050505050509192919290803590602001906401000000008111156118f557600080fd5b82018360208201111561190757600080fd5b8035906020019184600183028401116401000000008311171561192957600080fd5b91908080601f016020809104026020016040519081016040528093929190818152602001838380828437600081840152601f19601f8201169050808301925050505050505091929192908035906020019064010000000081111561198c57600080fd5b82018360208201111561199e57600080fd5b803590602001918460018302840111640100000000831117156119c057600080fd5b91908080601f016020809104026020016040519081016040528093929190818152602001838380828437600081840152601f19601f82011690508083019250505050505050919291929080359060200190640100000000811115611a2357600080fd5b820183602082011115611a3557600080fd5b80359060200191846001830284011164010000000083111715611a5757600080fd5b91908080601f016020809104026020016040519081016040528093929190818152602001838380828437600081840152601f19601f8201169050808301925050505050505091929192905050506141f8565b005b348015611ab757600080fd5b50611ac06145e4565b6040518082815260200191505060405180910390f35b348015611ae257600080fd5b50611aeb6145ea565b6040518080602001828103825283818151815260200191508051906020019080838360005b83811015611b2b578082015181840152602081019050611b10565b50505050905090810190601f168015611b585780820380516001836020036101000a031916815260200191505b509250505060405180910390f35b348015611b7257600080fd5b50611b9f60048036036020811015611b8957600080fd5b8101908080359060200190929190505050614688565b604051808681526020018060200180602001806020018573ffffffffffffffffffffffffffffffffffffffff1673ffffffffffffffffffffffffffffffffffffffff168152602001848103845288818151815260200191508051906020019080838360005b83811015611c1f578082015181840152602081019050611c04565b50505050905090810190601f168015611c4c5780820380516001836020036101000a031916815260200191505b50848103835287818151815260200191508051906020019080838360005b83811015611c85578082015181840152602081019050611c6a565b50505050905090810190601f168015611cb25780820380516001836020036101000a031916815260200191505b50848103825286818151815260200191508051906020019080838360005b83811015611ceb578082015181840152602081019050611cd0565b50505050905090810190601f168015611d185780820380516001836020036101000a031916815260200191505b509850505050505050505060405180910390f35b6003600081548092919060010191905055506040518060a0016040528060035481526020018481526020018381526020018281526020013373ffffffffffffffffffffffffffffffffffffffff16815250600760006003548152602001908152602001600020600082015181600001556020820151816001019080519060200190611db89291906148a6565b506040820151816002019080519060200190611dd59291906148a6565b506060820151816003019080519060200190611df29291906148a6565b5060808201518160040160006101000a81548173ffffffffffffffffffffffffffffffffffffffff021916908373ffffffffffffffffffffffffffffffffffffffff1602179055509050507f8c5296f9a66c7f2f7505b81161eb9de0a0e7e4275029b1b9c83100017bc0906060035484848433604051808681526020018060200180602001806020018573ffffffffffffffffffffffffffffffffffffffff1673ffffffffffffffffffffffffffffffffffffffff168152602001848103845288818151815260200191508051906020019080838360005b83811015611ee5578082015181840152602081019050611eca565b50505050905090810190601f168015611f125780820380516001836020036101000a031916815260200191505b50848103835287818151815260200191508051906020019080838360005b83811015611f4b578082015181840152602081019050611f30565b50505050905090810190601f168015611f785780820380516001836020036101000a031916815260200191505b50848103825286818151815260200191508051906020019080838360005b83811015611fb1578082015181840152602081019050611f96565b50505050905090810190601f168015611fde5780820380516001836020036101000a031916815260200191505b509850505050505050505060405180910390a1505050565b6008602052806000526040600020600091509050806000015490806001018054600181600116156101000203166002900480601f0160208091040260200160405190810160405280929190818152602001828054600181600116156101000203166002900480156120a85780601f1061207d576101008083540402835291602001916120a8565b820191906000526020600020905b81548152906001019060200180831161208b57829003601f168201915b505050505090806002018054600181600116156101000203166002900480601f0160208091040260200160405190810160405280929190818152602001828054600181600116156101000203166002900480156121465780601f1061211b57610100808354040283529160200191612146565b820191906000526020600020905b81548152906001019060200180831161212957829003601f168201915b505050505090806003018054600181600116156101000203166002900480601f0160208091040260200160405190810160405280929190818152602001828054600181600116156101000203166002900480156121e45780601f106121b9576101008083540402835291602001916121e4565b820191906000526020600020905b8154815290600101906020018083116121c757829003601f168201915b505050505090806004018054600181600116156101000203166002900480601f0160208091040260200160405190810160405280929190818152602001828054600181600116156101000203166002900480156122825780601f1061225757610100808354040283529160200191612282565b820191906000526020600020905b81548152906001019060200180831161226557829003601f168201915b5050505050908060050160009054906101000a900473ffffffffffffffffffffffffffffffffffffffff16908060060154905087565b6000606080606080606060006122cc614926565b600660008a81526020019081526020016000206040518060e001604052908160008201548152602001600182018054600181600116156101000203166002900480601f01602080910402602001604051908101604052809291908181526020018280546001816001161561010002031660029004801561238d5780601f106123625761010080835404028352916020019161238d565b820191906000526020600020905b81548152906001019060200180831161237057829003601f168201915b50505050508152602001600282018054600181600116156101000203166002900480601f01602080910402602001604051908101604052809291908181526020018280546001816001161561010002031660029004801561242f5780601f106124045761010080835404028352916020019161242f565b820191906000526020600020905b81548152906001019060200180831161241257829003601f168201915b50505050508152602001600382018054600181600116156101000203166002900480601f0160208091040260200160405190810160405280929190818152602001828054600181600116156101000203166002900480156124d15780601f106124a6576101008083540402835291602001916124d1565b820191906000526020600020905b8154815290600101906020018083116124b457829003601f168201915b50505050508152602001600482018054600181600116156101000203166002900480601f0160208091040260200160405190810160405280929190818152602001828054600181600116156101000203166002900480156125735780601f1061254857610100808354040283529160200191612573565b820191906000526020600020905b81548152906001019060200180831161255657829003601f168201915b50505050508152602001600582018054600181600116156101000203166002900480601f0160208091040260200160405190810160405280929190818152602001828054600181600116156101000203166002900480156126155780601f106125ea57610100808354040283529160200191612615565b820191906000526020600020905b8154815290600101906020018083116125f857829003601f168201915b505050505081526020016006820160009054906101000a900473ffffffffffffffffffffffffffffffffffffffff1673ffffffffffffffffffffffffffffffffffffffff1673ffffffffffffffffffffffffffffffffffffffff16815250509050806000015181602001518260400151836060015184608001518560a001518660c00151859550849450839350829250819150975097509750975097509750975050919395979092949650565b6005600081548092919060010191905055506040518060c0016040528060055481526020018581526020018481526020018381526020018281526020013373ffffffffffffffffffffffffffffffffffffffff168152506009600060055481526020019081526020016000206000820151816000015560208201518160010190805190602001906127549291906148a6565b5060408201518160020190805190602001906127719291906148a6565b506060820151816003015560808201518160040190805190602001906127989291906148a6565b5060a08201518160050160006101000a81548173ffffffffffffffffffffffffffffffffffffffff021916908373ffffffffffffffffffffffffffffffffffffffff1602179055509050507f775bfdece810d611a8936f69d29e49e65122068832dc26d8a8ed212b82226c916005548585858533604051808781526020018060200180602001868152602001806020018573ffffffffffffffffffffffffffffffffffffffff1673ffffffffffffffffffffffffffffffffffffffff168152602001848103845289818151815260200191508051906020019080838360005b83811015612892578082015181840152602081019050612877565b50505050905090810190601f1680156128bf5780820380516001836020036101000a031916815260200191505b50848103835288818151815260200191508051906020019080838360005b838110156128f85780820151818401526020810190506128dd565b50505050905090810190601f1680156129255780820380516001836020036101000a031916815260200191505b50848103825286818151815260200191508051906020019080838360005b8381101561295e578082015181840152602081019050612943565b50505050905090810190601f16801561298b5780820380516001836020036101000a031916815260200191505b50995050505050505050505060405180910390a150505050565b60045481565b6000606080606060006129bc614979565b600760008881526020019081526020016000206040518060a001604052908160008201548152602001600182018054600181600116156101000203166002900480601f016020809104026020016040519081016040528092919081815260200182805460018160011615610100020316600290048015612a7d5780601f10612a5257610100808354040283529160200191612a7d565b820191906000526020600020905b815481529060010190602001808311612a6057829003601f168201915b50505050508152602001600282018054600181600116156101000203166002900480601f016020809104026020016040519081016040528092919081815260200182805460018160011615610100020316600290048015612b1f5780601f10612af457610100808354040283529160200191612b1f565b820191906000526020600020905b815481529060010190602001808311612b0257829003601f168201915b50505050508152602001600382018054600181600116156101000203166002900480601f016020809104026020016040519081016040528092919081815260200182805460018160011615610100020316600290048015612bc15780601f10612b9657610100808354040283529160200191612bc1565b820191906000526020600020905b815481529060010190602001808311612ba457829003601f168201915b505050505081526020016004820160009054906101000a900473ffffffffffffffffffffffffffffffffffffffff1673ffffffffffffffffffffffffffffffffffffffff1673ffffffffffffffffffffffffffffffffffffffff1681525050905080600001518160200151826040015183606001518460800151839350829250819150955095509550955095505091939590929450565b6000606080600080612c686149be565b600960008881526020019081526020016000206040518060c001604052908160008201548152602001600182018054600181600116156101000203166002900480601f016020809104026020016040519081016040528092919081815260200182805460018160011615610100020316600290048015612d295780601f10612cfe57610100808354040283529160200191612d29565b820191906000526020600020905b815481529060010190602001808311612d0c57829003601f168201915b50505050508152602001600282018054600181600116156101000203166002900480601f016020809104026020016040519081016040528092919081815260200182805460018160011615610100020316600290048015612dcb5780601f10612da057610100808354040283529160200191612dcb565b820191906000526020600020905b815481529060010190602001808311612dae57829003601f168201915b5050505050815260200160038201548152602001600482018054600181600116156101000203166002900480601f016020809104026020016040519081016040528092919081815260200182805460018160011615610100020316600290048015612e775780601f10612e4c57610100808354040283529160200191612e77565b820191906000526020600020905b815481529060010190602001808311612e5a57829003601f168201915b505050505081526020016005820160009054906101000a900473ffffffffffffffffffffffffffffffffffffffff1673ffffffffffffffffffffffffffffffffffffffff1673ffffffffffffffffffffffffffffffffffffffff1681525050905080600001518160200151826040015183606001518460a00151839350829250809050955095509550955095505091939590929450565b6009602052806000526040600020600091509050806000015490806001018054600181600116156101000203166002900480601f016020809104026020016040519081016040528092919081815260200182805460018160011615610100020316600290048015612fc05780601f10612f9557610100808354040283529160200191612fc0565b820191906000526020600020905b815481529060010190602001808311612fa357829003601f168201915b505050505090806002018054600181600116156101000203166002900480601f01602080910402602001604051908101604052809291908181526020018280546001816001161561010002031660029004801561305e5780601f106130335761010080835404028352916020019161305e565b820191906000526020600020905b81548152906001019060200180831161304157829003601f168201915b505050505090806003015490806004018054600181600116156101000203166002900480601f0160208091040260200160405190810160405280929190818152602001828054600181600116156101000203166002900480156131025780601f106130d757610100808354040283529160200191613102565b820191906000526020600020905b8154815290600101906020018083116130e557829003601f168201915b5050505050908060050160009054906101000a900473ffffffffffffffffffffffffffffffffffffffff16905086565b61313a6149be565b600960008381526020019081526020016000206040518060c001604052908160008201548152602001600182018054600181600116156101000203166002900480601f0160208091040260200160405190810160405280929190818152602001828054600181600116156101000203166002900480156131fb5780601f106131d0576101008083540402835291602001916131fb565b820191906000526020600020905b8154815290600101906020018083116131de57829003601f168201915b50505050508152602001600282018054600181600116156101000203166002900480601f01602080910402602001604051908101604052809291908181526020018280546001816001161561010002031660029004801561329d5780601f106132725761010080835404028352916020019161329d565b820191906000526020600020905b81548152906001019060200180831161328057829003601f168201915b5050505050815260200160038201548152602001600482018054600181600116156101000203166002900480601f0160208091040260200160405190810160405280929190818152602001828054600181600116156101000203166002900480156133495780601f1061331e57610100808354040283529160200191613349565b820191906000526020600020905b81548152906001019060200180831161332c57829003601f168201915b505050505081526020016005820160009054906101000a900473ffffffffffffffffffffffffffffffffffffffff1673ffffffffffffffffffffffffffffffffffffffff1673ffffffffffffffffffffffffffffffffffffffff1681525050905060008160a001519050600082600001511180156133cd5750600554826000015111155b61343f576040517f08c379a00000000000000000000000000000000000000000000000000000000081526004018080602001828103825260108152602001807f4e4f5420412050524f445543542049440000000000000000000000000000000081525060200191505060405180910390fd5b81606001513410156134b9576040517f08c379a000000000000000000000000000000000000000000000000000000000815260040180806020018281038252601b8152602001807f596f7520446f6e2774204861766520456e6f756768204574686572000000000081525060200191505060405180910390fd5b3373ffffffffffffffffffffffffffffffffffffffff168173ffffffffffffffffffffffffffffffffffffffff16141561355b576040517f08c379a000000000000000000000000000000000000000000000000000000000815260040180806020018281038252601e8152602001807f53656c6c65722043616e277420507572636861736520486973204974656d000081525060200191505060405180910390fd5b81600960008581526020019081526020016000206000820151816000015560208201518160010190805190602001906135959291906148a6565b5060408201518160020190805190602001906135b29291906148a6565b506060820151816003015560808201518160040190805190602001906135d99291906148a6565b5060a08201518160050160006101000a81548173ffffffffffffffffffffffffffffffffffffffff021916908373ffffffffffffffffffffffffffffffffffffffff1602179055509050508073ffffffffffffffffffffffffffffffffffffffff166108fc349081150290604051600060405180830381858888f1935050505015801561366a573d6000803e3d6000fd5b507f735d394066f15c73a35004c29f92c2959aedc5d9040af0e7df48578a27469319338234604051808473ffffffffffffffffffffffffffffffffffffffff1673ffffffffffffffffffffffffffffffffffffffff1681526020018373ffffffffffffffffffffffffffffffffffffffff1673ffffffffffffffffffffffffffffffffffffffff168152602001828152602001935050505060405180910390a1505050565b6006602052806000526040600020600091509050806000015490806001018054600181600116156101000203166002900480601f0160208091040260200160405190810160405280929190818152602001828054600181600116156101000203166002900480156137c15780601f10613796576101008083540402835291602001916137c1565b820191906000526020600020905b8154815290600101906020018083116137a457829003601f168201915b505050505090806002018054600181600116156101000203166002900480601f01602080910402602001604051908101604052809291908181526020018280546001816001161561010002031660029004801561385f5780601f106138345761010080835404028352916020019161385f565b820191906000526020600020905b81548152906001019060200180831161384257829003601f168201915b505050505090806003018054600181600116156101000203166002900480601f0160208091040260200160405190810160405280929190818152602001828054600181600116156101000203166002900480156138fd5780601f106138d2576101008083540402835291602001916138fd565b820191906000526020600020905b8154815290600101906020018083116138e057829003601f168201915b505050505090806004018054600181600116156101000203166002900480601f01602080910402602001604051908101604052809291908181526020018280546001816001161561010002031660029004801561399b5780601f106139705761010080835404028352916020019161399b565b820191906000526020600020905b81548152906001019060200180831161397e57829003601f168201915b505050505090806005018054600181600116156101000203166002900480601f016020809104026020016040519081016040528092919081815260200182805460018160011615610100020316600290048015613a395780601f10613a0e57610100808354040283529160200191613a39565b820191906000526020600020905b815481529060010190602001808311613a1c57829003601f168201915b5050505050908060060160009054906101000a900473ffffffffffffffffffffffffffffffffffffffff16905087565b6000606080606080600080613a7c614a0a565b600860008a81526020019081526020016000206040518060e001604052908160008201548152602001600182018054600181600116156101000203166002900480601f016020809104026020016040519081016040528092919081815260200182805460018160011615610100020316600290048015613b3d5780601f10613b1257610100808354040283529160200191613b3d565b820191906000526020600020905b815481529060010190602001808311613b2057829003601f168201915b50505050508152602001600282018054600181600116156101000203166002900480601f016020809104026020016040519081016040528092919081815260200182805460018160011615610100020316600290048015613bdf5780601f10613bb457610100808354040283529160200191613bdf565b820191906000526020600020905b815481529060010190602001808311613bc257829003601f168201915b50505050508152602001600382018054600181600116156101000203166002900480601f016020809104026020016040519081016040528092919081815260200182805460018160011615610100020316600290048015613c815780601f10613c5657610100808354040283529160200191613c81565b820191906000526020600020905b815481529060010190602001808311613c6457829003601f168201915b50505050508152602001600482018054600181600116156101000203166002900480601f016020809104026020016040519081016040528092919081815260200182805460018160011615610100020316600290048015613d235780601f10613cf857610100808354040283529160200191613d23565b820191906000526020600020905b815481529060010190602001808311613d0657829003601f168201915b505050505081526020016005820160009054906101000a900473ffffffffffffffffffffffffffffffffffffffff1673ffffffffffffffffffffffffffffffffffffffff1673ffffffffffffffffffffffffffffffffffffffff1681526020016006820154815250509050806000015181602001518260400151836060015184608001518560a001518660c00151859550849450839350829250819150975097509750975097509750975050919395979092949650565b60035481565b60008054600181600116156101000203166002900480601f016020809104026020016040519081016040528092919081815260200182805460018160011615610100020316600290048015613e765780601f10613e4b57610100808354040283529160200191613e76565b820191906000526020600020905b815481529060010190602001808311613e5957829003601f168201915b505050505081565b60025481565b6004600081548092919060010191905055506040518060e0016040528060045481526020018681526020018581526020018481526020018381526020013373ffffffffffffffffffffffffffffffffffffffff16815260200182815250600860006004548152602001908152602001600020600082015181600001556020820151816001019080519060200190613f1c9291906148a6565b506040820151816002019080519060200190613f399291906148a6565b506060820151816003019080519060200190613f569291906148a6565b506080820151816004019080519060200190613f739291906148a6565b5060a08201518160050160006101000a81548173ffffffffffffffffffffffffffffffffffffffff021916908373ffffffffffffffffffffffffffffffffffffffff16021790555060c082015181600601559050507ffd274853b3082d2bbf6647d7a1552825ce34531f5c3ac1102d2ddbb4428717ac60045486868686338760405180888152602001806020018060200180602001806020018773ffffffffffffffffffffffffffffffffffffffff1673ffffffffffffffffffffffffffffffffffffffff16815260200186815260200185810385528b818151815260200191508051906020019080838360005b8381101561407c578082015181840152602081019050614061565b50505050905090810190601f1680156140a95780820380516001836020036101000a031916815260200191505b5085810384528a818151815260200191508051906020019080838360005b838110156140e25780820151818401526020810190506140c7565b50505050905090810190601f16801561410f5780820380516001836020036101000a031916815260200191505b50858103835289818151815260200191508051906020019080838360005b8381101561414857808201518184015260208101905061412d565b50505050905090810190601f1680156141755780820380516001836020036101000a031916815260200191505b50858103825288818151815260200191508051906020019080838360005b838110156141ae578082015181840152602081019050614193565b50505050905090810190601f1680156141db5780820380516001836020036101000a031916815260200191505b509b50505050505050505050505060405180910390a15050505050565b6002600081548092919060010191905055506040518060e0016040528060025481526020018681526020018581526020018481526020018381526020018281526020013373ffffffffffffffffffffffffffffffffffffffff168152506006600060025481526020019081526020016000206000820151816000015560208201518160010190805190602001906142909291906148a6565b5060408201518160020190805190602001906142ad9291906148a6565b5060608201518160030190805190602001906142ca9291906148a6565b5060808201518160040190805190602001906142e79291906148a6565b5060a08201518160050190805190602001906143049291906148a6565b5060c08201518160060160006101000a81548173ffffffffffffffffffffffffffffffffffffffff021916908373ffffffffffffffffffffffffffffffffffffffff1602179055509050507f960bd46fec9bf5384fe0d02b4e746efb3428807ae15c8586b5a97e576fa8efb96002548686868686336040518088815260200180602001806020018060200180602001806020018773ffffffffffffffffffffffffffffffffffffffff1673ffffffffffffffffffffffffffffffffffffffff16815260200186810386528c818151815260200191508051906020019080838360005b838110156144015780820151818401526020810190506143e6565b50505050905090810190601f16801561442e5780820380516001836020036101000a031916815260200191505b5086810385528b818151815260200191508051906020019080838360005b8381101561446757808201518184015260208101905061444c565b50505050905090810190601f1680156144945780820380516001836020036101000a031916815260200191505b5086810384528a818151815260200191508051906020019080838360005b838110156144cd5780820151818401526020810190506144b2565b50505050905090810190601f1680156144fa5780820380516001836020036101000a031916815260200191505b50868103835289818151815260200191508051906020019080838360005b83811015614533578082015181840152602081019050614518565b50505050905090810190601f1680156145605780820380516001836020036101000a031916815260200191505b50868103825288818151815260200191508051906020019080838360005b8381101561459957808201518184015260208101905061457e565b50505050905090810190601f1680156145c65780820380516001836020036101000a031916815260200191505b509c5050505050505050505050505060405180910390a15050505050565b60055481565b60018054600181600116156101000203166002900480601f0160208091040260200160405190810160405280929190818152602001828054600181600116156101000203166002900480156146805780601f1061465557610100808354040283529160200191614680565b820191906000526020600020905b81548152906001019060200180831161466357829003601f168201915b505050505081565b6007602052806000526040600020600091509050806000015490806001018054600181600116156101000203166002900480601f01602080910402602001604051908101604052809291908181526020018280546001816001161561010002031660029004801561473a5780601f1061470f5761010080835404028352916020019161473a565b820191906000526020600020905b81548152906001019060200180831161471d57829003601f168201915b505050505090806002018054600181600116156101000203166002900480601f0160208091040260200160405190810160405280929190818152602001828054600181600116156101000203166002900480156147d85780601f106147ad576101008083540402835291602001916147d8565b820191906000526020600020905b8154815290600101906020018083116147bb57829003601f168201915b505050505090806003018054600181600116156101000203166002900480601f0160208091040260200160405190810160405280929190818152602001828054600181600116156101000203166002900480156148765780601f1061484b57610100808354040283529160200191614876565b820191906000526020600020905b81548152906001019060200180831161485957829003601f168201915b5050505050908060040160009054906101000a900473ffffffffffffffffffffffffffffffffffffffff16905085565b828054600181600116156101000203166002900490600052602060002090601f016020900481019282601f106148e757805160ff1916838001178555614915565b82800160010185558215614915579182015b828111156149145782518255916020019190600101906148f9565b5b5090506149229190614a5d565b5090565b6040518060e00160405280600081526020016060815260200160608152602001606081526020016060815260200160608152602001600073ffffffffffffffffffffffffffffffffffffffff1681525090565b6040518060a0016040528060008152602001606081526020016060815260200160608152602001600073ffffffffffffffffffffffffffffffffffffffff1681525090565b6040518060c001604052806000815260200160608152602001606081526020016000815260200160608152602001600073ffffffffffffffffffffffffffffffffffffffff1681525090565b6040518060e001604052806000815260200160608152602001606081526020016060815260200160608152602001600073ffffffffffffffffffffffffffffffffffffffff168152602001600081525090565b614a7f91905b80821115614a7b576000816000905550600101614a63565b5090565b9056fea265627a7a7231582051e3afbfcfbaa455336fc8b7e43afade941ed3c01f7694ca7d165c72f72654d564736f6c63430005100032",
  "source": "/*\n    PUBLIC PROPERTIES\n        - dapp_name\n        - dapp_builders\n        - farmers\n        - buyers\n        - products\n        - transport companies\n        - farmerCont\n        - buyerCount\n        - transportCompanyCount\n        - productsCount\n\n\n    PUBLIC METHODS\n        - CreateFarmer\n        - CreateBuyer\n        - CreateTransportCompanies\n        - CreateProduct\n\n        - getFarmerDetail\n        - getTransportCompanyDetail\n        - getBuyerDetail\n        - getProductDetail\n\n        - traceProduct\n        - store transactionHash\n*/\npragma solidity ^0.5.0;\n\ncontract MarketPlace{\n\n\n\n    string public dapp_name;  //dapp_name \n    string public dapp_builder = \"Chynasah\";\n    uint public farmerCount =0; \n    uint public buyerCount =0;\n    uint public transportCompanyCount =0;\n    uint public productCount = 0;\n\n    mapping (uint=>Farmer) public farmers;\n    mapping (uint=>Buyer) public buyers;\n    mapping (uint=>TransportCompany) public transport_companies;\n    mapping (uint=>Product) public products;\n    \n\n    /* START STRUCT  */\n    struct Farmer{\n        uint id;\n        string full_name;\n        string picture;\n        string farm_name;\n        string email_adddress;\n        string farm_description;\n        address farmer_wallet_address;\n    }\n\n\n\n\n    struct Buyer{\n        uint id;\n        string full_name;\n        string picture;\n        string email_address;\n        address buyer_wallet_address;\n    }\n\n\n    struct TransportCompany{\n        uint id;\n        string transport_name;\n        string transport_description;\n        string picture;       \n        string transport_address;\n        address payable transport_wallet_address;\n        uint price ; \n    }\n\n\n    struct Product{\n        uint id;\n        string product_name;\n        string product_description;\n        uint product_price;\n        string upload_image;\n        address payable seller;\n    }\n\n    /* END STRUCT  */\n\n    /*START EVENT */\n    event FarmCreated(\n        uint id,\n        string full_name,\n        string picture,\n        string farm_name,\n        string email_adddress,\n        string farm_description,\n        address farmer_wallet_address\n    );\n\n\n    event BuyerCreated(\n        uint id,\n        string full_name,\n        string picture,\n        string email_address,\n        address buyer_wallet_address\n    );\n    event ProductCreated(\n        uint id,\n        string product_name,\n        string product_description,\n        uint product_price,\n        string upload_image,\n        address payable seller\n    );\n    event TransportCompanyCreated(\n        uint id,\n        string transport_name,\n        string transport_description,\n        string picture,\n        string transport_address,\n        address transport_wallet_address,\n        uint price  \n    );\n    event BoughtProduct(address _from,address _to,uint amt);\n    /* END EVENT */\n\n    /* START METHOD */\n    function createSellerProfile(\n        string memory _full_name,\n        string memory _picture,\n        string memory _farm_name,\n        string memory _email_address,\n        string memory _farm_description\n    )public{\n        farmerCount++;\n        farmers[farmerCount] = Farmer(\n            farmerCount,\n            _full_name,\n            _picture,\n            _farm_name,\n            _email_address,\n            _farm_description,\n            msg.sender\n        );\n\n        emit FarmCreated(\n            farmerCount,\n            _full_name,\n            _picture,\n            _farm_name,\n            _email_address,\n            _farm_description,\n            msg.sender\n        );\n\n    }\n\n\n    function createBuyer(\n        string memory _full_name,\n        string memory _picture,\n        string memory  _email_address\n        // address buyer_wallet_address\n    )public{\n        buyerCount++;\n        buyers[buyerCount] = Buyer(\n                buyerCount,\n                _full_name,\n                _picture,\n                _email_address,\n                msg.sender\n        );\n        emit BuyerCreated(\n            buyerCount,\n                _full_name,\n                _picture,\n                _email_address,\n                msg.sender\n        );\n    }\n\n    function createTransportCompany(\n        string memory _transport_name,\n        string memory _transport_description,\n        string memory _picture,\n        string memory _transport_address,\n        uint  _price\n    )public{\n        transportCompanyCount++;\n        transport_companies[transportCompanyCount] = TransportCompany(\n            transportCompanyCount,\n            _transport_name,\n            _transport_description,\n            _picture,\n            _transport_address,\n            msg.sender,\n            _price\n        );\n\n        emit TransportCompanyCreated(\n            transportCompanyCount,\n                _transport_name,\n                _transport_description,\n                _picture,\n                _transport_address,\n                msg.sender,\n                _price\n        );\n    }\n\n\n\n\n\n    function getFarmerDetail(uint _id)public view returns(\n                                  uint id,\n                                  string memory,\n                                  string memory,\n                                  string memory,\n                                  string memory,\n                                  string memory,\n                                  address\n    ){\n        Farmer memory f = farmers [_id];\n        return (\n            f.id,\n            f.full_name,\n            f.picture,\n            f.farm_name,\n            f.email_adddress,\n            f.farm_description,\n            f.farmer_wallet_address\n        );\n    }\n\nfunction getProductDetail(uint _id)public view returns(\n                                  uint id,\n                                  string memory,\n                                  string memory,\n                                  uint,\n                                  address\n    ){\n        Product memory p = products [_id];\n        return (\n            p.id,\n            p.product_name,\n            p.product_description,\n            p.product_price,\n            p.seller\n        );\n    }\n\n    function getBuyerDetail(uint _id)public view returns(\n                uint,\n        string  memory,\n        string memory,\n        string memory ,\n        address\n    ){\n        Buyer memory b = buyers [_id];\n        return(\n            b.id,\n            b.full_name,\n            b.picture,\n            b.email_address,\n            b.buyer_wallet_address\n        );\n    }\n\n\n    function getTransportCompanyDetail(uint _id)public view returns(\n        uint id,\n        string memory,\n        string memory,\n        string memory, \n        string memory,\n        address,\n        uint\n    ){\n        TransportCompany memory t = transport_companies [_id];\n        return (\n            t.id,\n            t.transport_name,\n            t.transport_description,\n            t.picture,\n            t.transport_address,\n            t.transport_wallet_address,\n            t.price\n        );\n    }   \n\n\n\n    function createProduct(\n        string memory _product_name,\n        string memory _product_description,\n        uint _price,\n        string memory _upload_image\n    )public{\n        productCount++;\n        products[productCount]= Product(\n            productCount,\n            _product_name,\n            _product_description,\n            _price,\n            _upload_image,\n            msg.sender\n        );\n        emit ProductCreated(\n              productCount,\n            _product_name,\n            _product_description,\n            _price,\n            _upload_image,\n            msg.sender\n        );\n    }\n\n    function buyProduct(uint _id) public payable{\n        // fetch the product\n                // Product memory p = products[_id];\n\n        Product memory _product = products[_id];\n        // fetch the owner\n        address payable _seller = _product.seller;\n        // make sure the product is is valid\n        require(_product.id > 0 && _product.id <= productCount,\"NOT A PRODUCT ID\");\n        // require that there is enough Ether in the transaction\n        require(msg.value >= _product.product_price,\"You Don't Have Enough Ether\");\n        // require that the buyer is not the seller\n        require(_seller != msg.sender,\"Seller Can't Purchase His Item\");\n        // transfer ownership\n        // _product.owner = msg.sender;\n        // mark as purchased\n        //update the product\n        products[_id] = _product;\n        // pay the seller by paying them ether\n        address(_seller).transfer(msg.value); \n        // trigger an event\n        emit BoughtProduct(\n            msg.sender,   \n            _seller,\n            msg.value\n        );\n    }\n}",
  "sourcePath": "/home/goodness/Development/ethereum/market-dapp/client/src/contracts/MarketPlace.sol",
  "compiler": {
    "name": "solc",
    "version": "0.5.16+commit.9c3226ce.Emscripten.clang"
  },
  "schemaVersion": "3.0.23",
  "updatedAt": "2020-03-08T20:29:49.515Z",
  "networkType": "ethereum",
  "devdoc": {
    "methods": {}
  },
  "userdoc": {
    "methods": {}
  }
}