{
  "contractName": "MarketPlace",
  "abi": [
    {
      "anonymous": false,
      "inputs": [
        {
          "indexed": false,
          "internalType": "uint256",
          "name": "id",
          "type": "uint256"
        },
        {
          "indexed": false,
          "internalType": "bool",
          "name": "arrived",
          "type": "bool"
        },
        {
          "indexed": false,
          "internalType": "uint256",
          "name": "updated",
          "type": "uint256"
        }
      ],
      "name": "Arrived",
      "type": "event"
    },
    {
      "anonymous": false,
      "inputs": [
        {
          "indexed": false,
          "internalType": "address",
          "name": "_from",
          "type": "address"
        },
        {
          "indexed": false,
          "internalType": "address",
          "name": "_to",
          "type": "address"
        },
        {
          "indexed": false,
          "internalType": "uint256",
          "name": "amt",
          "type": "uint256"
        }
      ],
      "name": "BoughtProduct",
      "type": "event"
    },
    {
      "anonymous": false,
      "inputs": [
        {
          "indexed": false,
          "internalType": "uint256",
          "name": "id",
          "type": "uint256"
        },
        {
          "indexed": false,
          "internalType": "string",
          "name": "full_name",
          "type": "string"
        },
        {
          "indexed": false,
          "internalType": "string",
          "name": "picture",
          "type": "string"
        },
        {
          "indexed": false,
          "internalType": "string",
          "name": "email_address",
          "type": "string"
        },
        {
          "indexed": false,
          "internalType": "address",
          "name": "buyer_wallet_address",
          "type": "address"
        }
      ],
      "name": "BuyerCreated",
      "type": "event"
    },
    {
      "anonymous": false,
      "inputs": [
        {
          "indexed": false,
          "internalType": "uint256",
          "name": "id",
          "type": "uint256"
        },
        {
          "indexed": false,
          "internalType": "string",
          "name": "full_name",
          "type": "string"
        },
        {
          "indexed": false,
          "internalType": "string",
          "name": "picture",
          "type": "string"
        },
        {
          "indexed": false,
          "internalType": "string",
          "name": "farm_name",
          "type": "string"
        },
        {
          "indexed": false,
          "internalType": "string",
          "name": "email_adddress",
          "type": "string"
        },
        {
          "indexed": false,
          "internalType": "string",
          "name": "farm_description",
          "type": "string"
        },
        {
          "indexed": false,
          "internalType": "address",
          "name": "farmer_wallet_address",
          "type": "address"
        }
      ],
      "name": "FarmCreated",
      "type": "event"
    },
    {
      "anonymous": false,
      "inputs": [
        {
          "indexed": false,
          "internalType": "uint256",
          "name": "id",
          "type": "uint256"
        },
        {
          "indexed": false,
          "internalType": "bool",
          "name": "left",
          "type": "bool"
        },
        {
          "indexed": false,
          "internalType": "uint256",
          "name": "updated",
          "type": "uint256"
        }
      ],
      "name": "Left",
      "type": "event"
    },
    {
      "anonymous": false,
      "inputs": [
        {
          "indexed": false,
          "internalType": "uint256",
          "name": "id",
          "type": "uint256"
        },
        {
          "indexed": false,
          "internalType": "string",
          "name": "product_name",
          "type": "string"
        },
        {
          "indexed": false,
          "internalType": "string",
          "name": "product_description",
          "type": "string"
        },
        {
          "indexed": false,
          "internalType": "uint256",
          "name": "product_price",
          "type": "uint256"
        },
        {
          "indexed": false,
          "internalType": "string",
          "name": "upload_image",
          "type": "string"
        },
        {
          "indexed": false,
          "internalType": "address payable",
          "name": "seller",
          "type": "address"
        }
      ],
      "name": "ProductCreated",
      "type": "event"
    },
    {
      "anonymous": false,
      "inputs": [
        {
          "indexed": false,
          "internalType": "uint256",
          "name": "id",
          "type": "uint256"
        },
        {
          "indexed": false,
          "internalType": "uint256",
          "name": "product_id",
          "type": "uint256"
        },
        {
          "indexed": false,
          "internalType": "string",
          "name": "product_name",
          "type": "string"
        },
        {
          "indexed": false,
          "internalType": "uint256",
          "name": "product_price",
          "type": "uint256"
        },
        {
          "indexed": false,
          "internalType": "bool",
          "name": "left",
          "type": "bool"
        },
        {
          "indexed": false,
          "internalType": "bool",
          "name": "arrived",
          "type": "bool"
        },
        {
          "indexed": false,
          "internalType": "bool",
          "name": "pending",
          "type": "bool"
        },
        {
          "indexed": false,
          "internalType": "uint256",
          "name": "timestamp",
          "type": "uint256"
        },
        {
          "indexed": false,
          "internalType": "uint256",
          "name": "updated",
          "type": "uint256"
        }
      ],
      "name": "TraceCreated",
      "type": "event"
    },
    {
      "anonymous": false,
      "inputs": [
        {
          "indexed": false,
          "internalType": "uint256",
          "name": "id",
          "type": "uint256"
        },
        {
          "indexed": false,
          "internalType": "string",
          "name": "transport_name",
          "type": "string"
        },
        {
          "indexed": false,
          "internalType": "string",
          "name": "transport_description",
          "type": "string"
        },
        {
          "indexed": false,
          "internalType": "string",
          "name": "picture",
          "type": "string"
        },
        {
          "indexed": false,
          "internalType": "string",
          "name": "transport_address",
          "type": "string"
        },
        {
          "indexed": false,
          "internalType": "address",
          "name": "transport_wallet_address",
          "type": "address"
        },
        {
          "indexed": false,
          "internalType": "uint256",
          "name": "price",
          "type": "uint256"
        }
      ],
      "name": "TransportCompanyCreated",
      "type": "event"
    },
    {
      "constant": true,
      "inputs": [],
      "name": "buyerCount",
      "outputs": [
        {
          "internalType": "uint256",
          "name": "",
          "type": "uint256"
        }
      ],
      "payable": false,
      "stateMutability": "view",
      "type": "function"
    },
    {
      "constant": true,
      "inputs": [
        {
          "internalType": "uint256",
          "name": "",
          "type": "uint256"
        }
      ],
      "name": "buyers",
      "outputs": [
        {
          "internalType": "uint256",
          "name": "id",
          "type": "uint256"
        },
        {
          "internalType": "string",
          "name": "full_name",
          "type": "string"
        },
        {
          "internalType": "string",
          "name": "picture",
          "type": "string"
        },
        {
          "internalType": "string",
          "name": "email_address",
          "type": "string"
        },
        {
          "internalType": "address",
          "name": "buyer_wallet_address",
          "type": "address"
        }
      ],
      "payable": false,
      "stateMutability": "view",
      "type": "function"
    },
    {
      "constant": true,
      "inputs": [],
      "name": "dapp_builder",
      "outputs": [
        {
          "internalType": "string",
          "name": "",
          "type": "string"
        }
      ],
      "payable": false,
      "stateMutability": "view",
      "type": "function"
    },
    {
      "constant": true,
      "inputs": [],
      "name": "dapp_name",
      "outputs": [
        {
          "internalType": "string",
          "name": "",
          "type": "string"
        }
      ],
      "payable": false,
      "stateMutability": "view",
      "type": "function"
    },
    {
      "constant": true,
      "inputs": [],
      "name": "farmerCount",
      "outputs": [
        {
          "internalType": "uint256",
          "name": "",
          "type": "uint256"
        }
      ],
      "payable": false,
      "stateMutability": "view",
      "type": "function"
    },
    {
      "constant": true,
      "inputs": [
        {
          "internalType": "uint256",
          "name": "",
          "type": "uint256"
        }
      ],
      "name": "farmers",
      "outputs": [
        {
          "internalType": "uint256",
          "name": "id",
          "type": "uint256"
        },
        {
          "internalType": "string",
          "name": "full_name",
          "type": "string"
        },
        {
          "internalType": "string",
          "name": "picture",
          "type": "string"
        },
        {
          "internalType": "string",
          "name": "farm_name",
          "type": "string"
        },
        {
          "internalType": "string",
          "name": "email_adddress",
          "type": "string"
        },
        {
          "internalType": "string",
          "name": "farm_description",
          "type": "string"
        },
        {
          "internalType": "address",
          "name": "farmer_wallet_address",
          "type": "address"
        }
      ],
      "payable": false,
      "stateMutability": "view",
      "type": "function"
    },
    {
      "constant": true,
      "inputs": [],
      "name": "productCount",
      "outputs": [
        {
          "internalType": "uint256",
          "name": "",
          "type": "uint256"
        }
      ],
      "payable": false,
      "stateMutability": "view",
      "type": "function"
    },
    {
      "constant": true,
      "inputs": [
        {
          "internalType": "uint256",
          "name": "",
          "type": "uint256"
        }
      ],
      "name": "products",
      "outputs": [
        {
          "internalType": "uint256",
          "name": "id",
          "type": "uint256"
        },
        {
          "internalType": "string",
          "name": "product_name",
          "type": "string"
        },
        {
          "internalType": "string",
          "name": "product_description",
          "type": "string"
        },
        {
          "internalType": "uint256",
          "name": "product_price",
          "type": "uint256"
        },
        {
          "internalType": "string",
          "name": "upload_image",
          "type": "string"
        },
        {
          "internalType": "address payable",
          "name": "seller",
          "type": "address"
        }
      ],
      "payable": false,
      "stateMutability": "view",
      "type": "function"
    },
    {
      "constant": true,
      "inputs": [],
      "name": "traceCount",
      "outputs": [
        {
          "internalType": "uint256",
          "name": "",
          "type": "uint256"
        }
      ],
      "payable": false,
      "stateMutability": "view",
      "type": "function"
    },
    {
      "constant": true,
      "inputs": [
        {
          "internalType": "uint256",
          "name": "",
          "type": "uint256"
        }
      ],
      "name": "tracing",
      "outputs": [
        {
          "internalType": "uint256",
          "name": "id",
          "type": "uint256"
        },
        {
          "internalType": "uint256",
          "name": "price_id",
          "type": "uint256"
        },
        {
          "internalType": "string",
          "name": "product_name",
          "type": "string"
        },
        {
          "internalType": "uint256",
          "name": "product_price",
          "type": "uint256"
        },
        {
          "internalType": "bool",
          "name": "left",
          "type": "bool"
        },
        {
          "internalType": "bool",
          "name": "arrived",
          "type": "bool"
        },
        {
          "internalType": "bool",
          "name": "pending",
          "type": "bool"
        },
        {
          "internalType": "uint256",
          "name": "timestamp",
          "type": "uint256"
        },
        {
          "internalType": "uint256",
          "name": "updated",
          "type": "uint256"
        }
      ],
      "payable": false,
      "stateMutability": "view",
      "type": "function"
    },
    {
      "constant": true,
      "inputs": [],
      "name": "transportCompanyCount",
      "outputs": [
        {
          "internalType": "uint256",
          "name": "",
          "type": "uint256"
        }
      ],
      "payable": false,
      "stateMutability": "view",
      "type": "function"
    },
    {
      "constant": true,
      "inputs": [
        {
          "internalType": "uint256",
          "name": "",
          "type": "uint256"
        }
      ],
      "name": "transport_companies",
      "outputs": [
        {
          "internalType": "uint256",
          "name": "id",
          "type": "uint256"
        },
        {
          "internalType": "string",
          "name": "transport_name",
          "type": "string"
        },
        {
          "internalType": "string",
          "name": "transport_description",
          "type": "string"
        },
        {
          "internalType": "string",
          "name": "picture",
          "type": "string"
        },
        {
          "internalType": "string",
          "name": "transport_address",
          "type": "string"
        },
        {
          "internalType": "address payable",
          "name": "transport_wallet_address",
          "type": "address"
        },
        {
          "internalType": "uint256",
          "name": "price",
          "type": "uint256"
        }
      ],
      "payable": false,
      "stateMutability": "view",
      "type": "function"
    },
    {
      "constant": false,
      "inputs": [
        {
          "internalType": "string",
          "name": "_full_name",
          "type": "string"
        },
        {
          "internalType": "string",
          "name": "_picture",
          "type": "string"
        },
        {
          "internalType": "string",
          "name": "_farm_name",
          "type": "string"
        },
        {
          "internalType": "string",
          "name": "_email_address",
          "type": "string"
        },
        {
          "internalType": "string",
          "name": "_farm_description",
          "type": "string"
        }
      ],
      "name": "createSellerProfile",
      "outputs": [],
      "payable": false,
      "stateMutability": "nonpayable",
      "type": "function"
    },
    {
      "constant": false,
      "inputs": [
        {
          "internalType": "string",
          "name": "_full_name",
          "type": "string"
        },
        {
          "internalType": "string",
          "name": "_picture",
          "type": "string"
        },
        {
          "internalType": "string",
          "name": "_email_address",
          "type": "string"
        }
      ],
      "name": "createBuyer",
      "outputs": [],
      "payable": false,
      "stateMutability": "nonpayable",
      "type": "function"
    },
    {
      "constant": false,
      "inputs": [
        {
          "internalType": "string",
          "name": "_transport_name",
          "type": "string"
        },
        {
          "internalType": "string",
          "name": "_transport_description",
          "type": "string"
        },
        {
          "internalType": "string",
          "name": "_picture",
          "type": "string"
        },
        {
          "internalType": "string",
          "name": "_transport_address",
          "type": "string"
        },
        {
          "internalType": "uint256",
          "name": "_price",
          "type": "uint256"
        }
      ],
      "name": "createTransportCompany",
      "outputs": [],
      "payable": false,
      "stateMutability": "nonpayable",
      "type": "function"
    },
    {
      "constant": false,
      "inputs": [
        {
          "internalType": "uint256",
          "name": "_product_id",
          "type": "uint256"
        },
        {
          "internalType": "string",
          "name": "transport_name",
          "type": "string"
        }
      ],
      "name": "createTrace",
      "outputs": [],
      "payable": false,
      "stateMutability": "nonpayable",
      "type": "function"
    },
    {
      "constant": false,
      "inputs": [
        {
          "internalType": "uint256",
          "name": "_id",
          "type": "uint256"
        },
        {
          "internalType": "bool",
          "name": "status",
          "type": "bool"
        }
      ],
      "name": "leftTrace",
      "outputs": [],
      "payable": false,
      "stateMutability": "nonpayable",
      "type": "function"
    },
    {
      "constant": false,
      "inputs": [
        {
          "internalType": "uint256",
          "name": "_id",
          "type": "uint256"
        },
        {
          "internalType": "bool",
          "name": "status",
          "type": "bool"
        }
      ],
      "name": "arriveTrace",
      "outputs": [],
      "payable": false,
      "stateMutability": "nonpayable",
      "type": "function"
    },
    {
      "constant": true,
      "inputs": [
        {
          "internalType": "uint256",
          "name": "_id",
          "type": "uint256"
        }
      ],
      "name": "getFarmerDetail",
      "outputs": [
        {
          "internalType": "uint256",
          "name": "id",
          "type": "uint256"
        },
        {
          "internalType": "string",
          "name": "",
          "type": "string"
        },
        {
          "internalType": "string",
          "name": "",
          "type": "string"
        },
        {
          "internalType": "string",
          "name": "",
          "type": "string"
        },
        {
          "internalType": "string",
          "name": "",
          "type": "string"
        },
        {
          "internalType": "string",
          "name": "",
          "type": "string"
        },
        {
          "internalType": "address",
          "name": "",
          "type": "address"
        }
      ],
      "payable": false,
      "stateMutability": "view",
      "type": "function"
    },
    {
      "constant": true,
      "inputs": [
        {
          "internalType": "uint256",
          "name": "_id",
          "type": "uint256"
        }
      ],
      "name": "getProductDetail",
      "outputs": [
        {
          "internalType": "uint256",
          "name": "id",
          "type": "uint256"
        },
        {
          "internalType": "string",
          "name": "",
          "type": "string"
        },
        {
          "internalType": "string",
          "name": "",
          "type": "string"
        },
        {
          "internalType": "uint256",
          "name": "",
          "type": "uint256"
        },
        {
          "internalType": "address",
          "name": "",
          "type": "address"
        }
      ],
      "payable": false,
      "stateMutability": "view",
      "type": "function"
    },
    {
      "constant": true,
      "inputs": [
        {
          "internalType": "uint256",
          "name": "_id",
          "type": "uint256"
        }
      ],
      "name": "getBuyerDetail",
      "outputs": [
        {
          "internalType": "uint256",
          "name": "",
          "type": "uint256"
        },
        {
          "internalType": "string",
          "name": "",
          "type": "string"
        },
        {
          "internalType": "string",
          "name": "",
          "type": "string"
        },
        {
          "internalType": "string",
          "name": "",
          "type": "string"
        },
        {
          "internalType": "address",
          "name": "",
          "type": "address"
        }
      ],
      "payable": false,
      "stateMutability": "view",
      "type": "function"
    },
    {
      "constant": true,
      "inputs": [
        {
          "internalType": "uint256",
          "name": "_id",
          "type": "uint256"
        }
      ],
      "name": "getTransportCompanyDetail",
      "outputs": [
        {
          "internalType": "uint256",
          "name": "id",
          "type": "uint256"
        },
        {
          "internalType": "string",
          "name": "",
          "type": "string"
        },
        {
          "internalType": "string",
          "name": "",
          "type": "string"
        },
        {
          "internalType": "string",
          "name": "",
          "type": "string"
        },
        {
          "internalType": "string",
          "name": "",
          "type": "string"
        },
        {
          "internalType": "address",
          "name": "",
          "type": "address"
        },
        {
          "internalType": "uint256",
          "name": "",
          "type": "uint256"
        }
      ],
      "payable": false,
      "stateMutability": "view",
      "type": "function"
    },
    {
      "constant": false,
      "inputs": [
        {
          "internalType": "string",
          "name": "_product_name",
          "type": "string"
        },
        {
          "internalType": "string",
          "name": "_product_description",
          "type": "string"
        },
        {
          "internalType": "uint256",
          "name": "_price",
          "type": "uint256"
        },
        {
          "internalType": "string",
          "name": "_upload_image",
          "type": "string"
        }
      ],
      "name": "createProduct",
      "outputs": [],
      "payable": false,
      "stateMutability": "nonpayable",
      "type": "function"
    },
    {
      "constant": false,
      "inputs": [
        {
          "internalType": "uint256",
          "name": "_id",
          "type": "uint256"
        }
      ],
      "name": "buyProduct",
      "outputs": [],
      "payable": true,
      "stateMutability": "payable",
      "type": "function"
    }
  ],
  "bytecode": "0x60806040526040518060400160405280601281526020017f40476f6f646e657373457a656f6b61666f72000000000000000000000000000081525060019080519060200190620000519291906200007f565b50600060025560006003556000600455600060055560006006553480156200007857600080fd5b506200012e565b828054600181600116156101000203166002900490600052602060002090601f016020900481019282601f10620000c257805160ff1916838001178555620000f3565b82800160010185558215620000f3579182015b82811115620000f2578251825591602001919060010190620000d5565b5b50905062000102919062000106565b5090565b6200012b91905b80821115620001275760008160009055506001016200010d565b5090565b90565b61579f806200013e6000396000f3fe60806040526004361061014b5760003560e01c80638642269e116100b6578063c4b8e3fc1161006f578063c4b8e3fc14611763578063c604a79a146119fa578063de8d352814611d1e578063e0f6ef8714611d65578063f18ee5a214611d90578063f2aa821814611e205761014b565b80638642269e146111785780638afdd669146111a657806395c4e510146114445780639e0cea051461167d578063b3ea346b146116a8578063bd45b397146117385761014b565b80634b0b5992116101085780634b0b599214610b405780635ddc949c14610d0657806367c38f1814610e67578063684f7ccd14610e9257806374060a5014610f645780637acc0b2014610fab5761014b565b806301e57dec146101505780630413a4ad146103465780630f709b9a1461057f57806312c891961461081d578063395ae18f14610a1d57806342b6f93e14610a48575b600080fd5b34801561015c57600080fd5b506103446004803603606081101561017357600080fd5b810190808035906020019064010000000081111561019057600080fd5b8201836020820111156101a257600080fd5b803590602001918460018302840111640100000000831117156101c457600080fd5b91908080601f016020809104026020016040519081016040528093929190818152602001838380828437600081840152601f19601f8201169050808301925050505050505091929192908035906020019064010000000081111561022757600080fd5b82018360208201111561023957600080fd5b8035906020019184600183028401116401000000008311171561025b57600080fd5b91908080601f016020809104026020016040519081016040528093929190818152602001838380828437600081840152601f19601f820116905080830192505050505050509192919290803590602001906401000000008111156102be57600080fd5b8201836020820111156102d057600080fd5b803590602001918460018302840111640100000000831117156102f257600080fd5b91908080601f016020809104026020016040519081016040528093929190818152602001838380828437600081840152601f19601f820116905080830192505050505050509192919290505050611fe6565b005b34801561035257600080fd5b5061037f6004803603602081101561036957600080fd5b81019080803590602001909291905050506122b0565b60405180888152602001806020018060200180602001806020018773ffffffffffffffffffffffffffffffffffffffff1673ffffffffffffffffffffffffffffffffffffffff16815260200186815260200185810385528b818151815260200191508051906020019080838360005b838110156104095780820151818401526020810190506103ee565b50505050905090810190601f1680156104365780820380516001836020036101000a031916815260200191505b5085810384528a818151815260200191508051906020019080838360005b8381101561046f578082015181840152602081019050610454565b50505050905090810190601f16801561049c5780820380516001836020036101000a031916815260200191505b50858103835289818151815260200191508051906020019080838360005b838110156104d55780820151818401526020810190506104ba565b50505050905090810190601f1680156105025780820380516001836020036101000a031916815260200191505b50858103825288818151815260200191508051906020019080838360005b8381101561053b578082015181840152602081019050610520565b50505050905090810190601f1680156105685780820380516001836020036101000a031916815260200191505b509b50505050505050505050505060405180910390f35b34801561058b57600080fd5b506105b8600480360360208110156105a257600080fd5b8101908080359060200190929190505050612572565b6040518088815260200180602001806020018060200180602001806020018773ffffffffffffffffffffffffffffffffffffffff1673ffffffffffffffffffffffffffffffffffffffff16815260200186810386528c818151815260200191508051906020019080838360005b83811015610640578082015181840152602081019050610625565b50505050905090810190601f16801561066d5780820380516001836020036101000a031916815260200191505b5086810385528b818151815260200191508051906020019080838360005b838110156106a657808201518184015260208101905061068b565b50505050905090810190601f1680156106d35780820380516001836020036101000a031916815260200191505b5086810384528a818151815260200191508051906020019080838360005b8381101561070c5780820151818401526020810190506106f1565b50505050905090810190601f1680156107395780820380516001836020036101000a031916815260200191505b50868103835289818151815260200191508051906020019080838360005b83811015610772578082015181840152602081019050610757565b50505050905090810190601f16801561079f5780820380516001836020036101000a031916815260200191505b50868103825288818151815260200191508051906020019080838360005b838110156107d85780820151818401526020810190506107bd565b50505050905090810190601f1680156108055780820380516001836020036101000a031916815260200191505b509c5050505050505050505050505060405180910390f35b34801561082957600080fd5b50610a1b6004803603608081101561084057600080fd5b810190808035906020019064010000000081111561085d57600080fd5b82018360208201111561086f57600080fd5b8035906020019184600183028401116401000000008311171561089157600080fd5b91908080601f016020809104026020016040519081016040528093929190818152602001838380828437600081840152601f19601f820116905080830192505050505050509192919290803590602001906401000000008111156108f457600080fd5b82018360208201111561090657600080fd5b8035906020019184600183028401116401000000008311171561092857600080fd5b91908080601f016020809104026020016040519081016040528093929190818152602001838380828437600081840152601f19601f820116905080830192505050505050509192919290803590602001909291908035906020019064010000000081111561099557600080fd5b8201836020820111156109a757600080fd5b803590602001918460018302840111640100000000831117156109c957600080fd5b91908080601f016020809104026020016040519081016040528093929190818152602001838380828437600081840152601f19601f82011690508083019250505050505050919291929050505061297c565b005b348015610a2957600080fd5b50610a32612c5f565b6040518082815260200191505060405180910390f35b348015610a5457600080fd5b50610a8160048036036020811015610a6b57600080fd5b8101908080359060200190929190505050612c65565b604051808a815260200189815260200180602001888152602001871515151581526020018615151515815260200185151515158152602001848152602001838152602001828103825289818151815260200191508051906020019080838360005b83811015610afd578082015181840152602081019050610ae2565b50505050905090810190601f168015610b2a5780820380516001836020036101000a031916815260200191505b509a505050505050505050505060405180910390f35b348015610b4c57600080fd5b50610b7960048036036020811015610b6357600080fd5b8101908080359060200190929190505050612d72565b604051808681526020018060200180602001806020018573ffffffffffffffffffffffffffffffffffffffff1673ffffffffffffffffffffffffffffffffffffffff168152602001848103845288818151815260200191508051906020019080838360005b83811015610bf9578082015181840152602081019050610bde565b50505050905090810190601f168015610c265780820380516001836020036101000a031916815260200191505b50848103835287818151815260200191508051906020019080838360005b83811015610c5f578082015181840152602081019050610c44565b50505050905090810190601f168015610c8c5780820380516001836020036101000a031916815260200191505b50848103825286818151815260200191508051906020019080838360005b83811015610cc5578082015181840152602081019050610caa565b50505050905090810190601f168015610cf25780820380516001836020036101000a031916815260200191505b509850505050505050505060405180910390f35b348015610d1257600080fd5b50610d3f60048036036020811015610d2957600080fd5b810190808035906020019092919050505061301f565b6040518086815260200180602001806020018581526020018473ffffffffffffffffffffffffffffffffffffffff1673ffffffffffffffffffffffffffffffffffffffff168152602001838103835287818151815260200191508051906020019080838360005b83811015610dc1578082015181840152602081019050610da6565b50505050905090810190601f168015610dee5780820380516001836020036101000a031916815260200191505b50838103825286818151815260200191508051906020019080838360005b83811015610e27578082015181840152602081019050610e0c565b50505050905090810190601f168015610e545780820380516001836020036101000a031916815260200191505b5097505050505050505060405180910390f35b348015610e7357600080fd5b50610e7c6132d5565b6040518082815260200191505060405180910390f35b348015610e9e57600080fd5b50610f6260048036036040811015610eb557600080fd5b810190808035906020019092919080359060200190640100000000811115610edc57600080fd5b820183602082011115610eee57600080fd5b80359060200191846001830284011164010000000083111715610f1057600080fd5b91908080601f016020809104026020016040519081016040528093929190818152602001838380828437600081840152601f19601f8201169050808301925050505050505091929192905050506132db565b005b348015610f7057600080fd5b50610fa960048036036040811015610f8757600080fd5b810190808035906020019092919080351515906020019092919050505061368a565b005b348015610fb757600080fd5b50610fe460048036036020811015610fce57600080fd5b8101908080359060200190929190505050613917565b604051808781526020018060200180602001868152602001806020018573ffffffffffffffffffffffffffffffffffffffff1673ffffffffffffffffffffffffffffffffffffffff168152602001848103845289818151815260200191508051906020019080838360005b8381101561106a57808201518184015260208101905061104f565b50505050905090810190601f1680156110975780820380516001836020036101000a031916815260200191505b50848103835288818151815260200191508051906020019080838360005b838110156110d05780820151818401526020810190506110b5565b50505050905090810190601f1680156110fd5780820380516001836020036101000a031916815260200191505b50848103825286818151815260200191508051906020019080838360005b8381101561113657808201518184015260208101905061111b565b50505050905090810190601f1680156111635780820380516001836020036101000a031916815260200191505b50995050505050505050505060405180910390f35b6111a46004803603602081101561118e57600080fd5b8101908080359060200190929190505050613b3b565b005b3480156111b257600080fd5b506111df600480360360208110156111c957600080fd5b8101908080359060200190929190505050614118565b6040518088815260200180602001806020018060200180602001806020018773ffffffffffffffffffffffffffffffffffffffff1673ffffffffffffffffffffffffffffffffffffffff16815260200186810386528c818151815260200191508051906020019080838360005b8381101561126757808201518184015260208101905061124c565b50505050905090810190601f1680156112945780820380516001836020036101000a031916815260200191505b5086810385528b818151815260200191508051906020019080838360005b838110156112cd5780820151818401526020810190506112b2565b50505050905090810190601f1680156112fa5780820380516001836020036101000a031916815260200191505b5086810384528a818151815260200191508051906020019080838360005b83811015611333578082015181840152602081019050611318565b50505050905090810190601f1680156113605780820380516001836020036101000a031916815260200191505b50868103835289818151815260200191508051906020019080838360005b8381101561139957808201518184015260208101905061137e565b50505050905090810190601f1680156113c65780820380516001836020036101000a031916815260200191505b50868103825288818151815260200191508051906020019080838360005b838110156113ff5780820151818401526020810190506113e4565b50505050905090810190601f16801561142c5780820380516001836020036101000a031916815260200191505b509c5050505050505050505050505060405180910390f35b34801561145057600080fd5b5061147d6004803603602081101561146757600080fd5b8101908080359060200190929190505050614472565b60405180888152602001806020018060200180602001806020018773ffffffffffffffffffffffffffffffffffffffff1673ffffffffffffffffffffffffffffffffffffffff16815260200186815260200185810385528b818151815260200191508051906020019080838360005b838110156115075780820151818401526020810190506114ec565b50505050905090810190601f1680156115345780820380516001836020036101000a031916815260200191505b5085810384528a818151815260200191508051906020019080838360005b8381101561156d578082015181840152602081019050611552565b50505050905090810190601f16801561159a5780820380516001836020036101000a031916815260200191505b50858103835289818151815260200191508051906020019080838360005b838110156115d35780820151818401526020810190506115b8565b50505050905090810190601f1680156116005780820380516001836020036101000a031916815260200191505b50858103825288818151815260200191508051906020019080838360005b8381101561163957808201518184015260208101905061161e565b50505050905090810190601f1680156116665780820380516001836020036101000a031916815260200191505b509b50505050505050505050505060405180910390f35b34801561168957600080fd5b506116926147e3565b6040518082815260200191505060405180910390f35b3480156116b457600080fd5b506116bd6147e9565b6040518080602001828103825283818151815260200191508051906020019080838360005b838110156116fd5780820151818401526020810190506116e2565b50505050905090810190601f16801561172a5780820380516001836020036101000a031916815260200191505b509250505060405180910390f35b34801561174457600080fd5b5061174d614887565b6040518082815260200191505060405180910390f35b34801561176f57600080fd5b506119f8600480360360a081101561178657600080fd5b81019080803590602001906401000000008111156117a357600080fd5b8201836020820111156117b557600080fd5b803590602001918460018302840111640100000000831117156117d757600080fd5b91908080601f016020809104026020016040519081016040528093929190818152602001838380828437600081840152601f19601f8201169050808301925050505050505091929192908035906020019064010000000081111561183a57600080fd5b82018360208201111561184c57600080fd5b8035906020019184600183028401116401000000008311171561186e57600080fd5b91908080601f016020809104026020016040519081016040528093929190818152602001838380828437600081840152601f19601f820116905080830192505050505050509192919290803590602001906401000000008111156118d157600080fd5b8201836020820111156118e357600080fd5b8035906020019184600183028401116401000000008311171561190557600080fd5b91908080601f016020809104026020016040519081016040528093929190818152602001838380828437600081840152601f19601f8201169050808301925050505050505091929192908035906020019064010000000081111561196857600080fd5b82018360208201111561197a57600080fd5b8035906020019184600183028401116401000000008311171561199c57600080fd5b91908080601f016020809104026020016040519081016040528093929190818152602001838380828437600081840152601f19601f8201169050808301925050505050505091929192908035906020019092919050505061488d565b005b348015611a0657600080fd5b50611d1c600480360360a0811015611a1d57600080fd5b8101908080359060200190640100000000811115611a3a57600080fd5b820183602082011115611a4c57600080fd5b80359060200191846001830284011164010000000083111715611a6e57600080fd5b91908080601f016020809104026020016040519081016040528093929190818152602001838380828437600081840152601f19601f82011690508083019250505050505050919291929080359060200190640100000000811115611ad157600080fd5b820183602082011115611ae357600080fd5b80359060200191846001830284011164010000000083111715611b0557600080fd5b91908080601f016020809104026020016040519081016040528093929190818152602001838380828437600081840152601f19601f82011690508083019250505050505050919291929080359060200190640100000000811115611b6857600080fd5b820183602082011115611b7a57600080fd5b80359060200191846001830284011164010000000083111715611b9c57600080fd5b91908080601f016020809104026020016040519081016040528093929190818152602001838380828437600081840152601f19601f82011690508083019250505050505050919291929080359060200190640100000000811115611bff57600080fd5b820183602082011115611c1157600080fd5b80359060200191846001830284011164010000000083111715611c3357600080fd5b91908080601f016020809104026020016040519081016040528093929190818152602001838380828437600081840152601f19601f82011690508083019250505050505050919291929080359060200190640100000000811115611c9657600080fd5b820183602082011115611ca857600080fd5b80359060200191846001830284011164010000000083111715611cca57600080fd5b91908080601f016020809104026020016040519081016040528093929190818152602001838380828437600081840152601f19601f820116905080830192505050505050509192919290505050614c01565b005b348015611d2a57600080fd5b50611d6360048036036040811015611d4157600080fd5b8101908080359060200190929190803515159060200190929190505050614fed565b005b348015611d7157600080fd5b50611d7a61527a565b6040518082815260200191505060405180910390f35b348015611d9c57600080fd5b50611da5615280565b6040518080602001828103825283818151815260200191508051906020019080838360005b83811015611de5578082015181840152602081019050611dca565b50505050905090810190601f168015611e125780820380516001836020036101000a031916815260200191505b509250505060405180910390f35b348015611e2c57600080fd5b50611e5960048036036020811015611e4357600080fd5b810190808035906020019092919050505061531e565b604051808681526020018060200180602001806020018573ffffffffffffffffffffffffffffffffffffffff1673ffffffffffffffffffffffffffffffffffffffff168152602001848103845288818151815260200191508051906020019080838360005b83811015611ed9578082015181840152602081019050611ebe565b50505050905090810190601f168015611f065780820380516001836020036101000a031916815260200191505b50848103835287818151815260200191508051906020019080838360005b83811015611f3f578082015181840152602081019050611f24565b50505050905090810190601f168015611f6c5780820380516001836020036101000a031916815260200191505b50848103825286818151815260200191508051906020019080838360005b83811015611fa5578082015181840152602081019050611f8a565b50505050905090810190601f168015611fd25780820380516001836020036101000a031916815260200191505b509850505050505050505060405180910390f35b6003600081548092919060010191905055506040518060a0016040528060035481526020018481526020018381526020018281526020013373ffffffffffffffffffffffffffffffffffffffff1681525060086000600354815260200190815260200160002060008201518160000155602082015181600101908051906020019061207292919061553c565b50604082015181600201908051906020019061208f92919061553c565b5060608201518160030190805190602001906120ac92919061553c565b5060808201518160040160006101000a81548173ffffffffffffffffffffffffffffffffffffffff021916908373ffffffffffffffffffffffffffffffffffffffff1602179055509050507f8c5296f9a66c7f2f7505b81161eb9de0a0e7e4275029b1b9c83100017bc0906060035484848433604051808681526020018060200180602001806020018573ffffffffffffffffffffffffffffffffffffffff1673ffffffffffffffffffffffffffffffffffffffff168152602001848103845288818151815260200191508051906020019080838360005b8381101561219f578082015181840152602081019050612184565b50505050905090810190601f1680156121cc5780820380516001836020036101000a031916815260200191505b50848103835287818151815260200191508051906020019080838360005b838110156122055780820151818401526020810190506121ea565b50505050905090810190601f1680156122325780820380516001836020036101000a031916815260200191505b50848103825286818151815260200191508051906020019080838360005b8381101561226b578082015181840152602081019050612250565b50505050905090810190601f1680156122985780820380516001836020036101000a031916815260200191505b509850505050505050505060405180910390a1505050565b6009602052806000526040600020600091509050806000015490806001018054600181600116156101000203166002900480601f0160208091040260200160405190810160405280929190818152602001828054600181600116156101000203166002900480156123625780601f1061233757610100808354040283529160200191612362565b820191906000526020600020905b81548152906001019060200180831161234557829003601f168201915b505050505090806002018054600181600116156101000203166002900480601f0160208091040260200160405190810160405280929190818152602001828054600181600116156101000203166002900480156124005780601f106123d557610100808354040283529160200191612400565b820191906000526020600020905b8154815290600101906020018083116123e357829003601f168201915b505050505090806003018054600181600116156101000203166002900480601f01602080910402602001604051908101604052809291908181526020018280546001816001161561010002031660029004801561249e5780601f106124735761010080835404028352916020019161249e565b820191906000526020600020905b81548152906001019060200180831161248157829003601f168201915b505050505090806004018054600181600116156101000203166002900480601f01602080910402602001604051908101604052809291908181526020018280546001816001161561010002031660029004801561253c5780601f106125115761010080835404028352916020019161253c565b820191906000526020600020905b81548152906001019060200180831161251f57829003601f168201915b5050505050908060050160009054906101000a900473ffffffffffffffffffffffffffffffffffffffff16908060060154905087565b6000606080606080606060006125866155bc565b600760008a81526020019081526020016000206040518060e001604052908160008201548152602001600182018054600181600116156101000203166002900480601f0160208091040260200160405190810160405280929190818152602001828054600181600116156101000203166002900480156126475780601f1061261c57610100808354040283529160200191612647565b820191906000526020600020905b81548152906001019060200180831161262a57829003601f168201915b50505050508152602001600282018054600181600116156101000203166002900480601f0160208091040260200160405190810160405280929190818152602001828054600181600116156101000203166002900480156126e95780601f106126be576101008083540402835291602001916126e9565b820191906000526020600020905b8154815290600101906020018083116126cc57829003601f168201915b50505050508152602001600382018054600181600116156101000203166002900480601f01602080910402602001604051908101604052809291908181526020018280546001816001161561010002031660029004801561278b5780601f106127605761010080835404028352916020019161278b565b820191906000526020600020905b81548152906001019060200180831161276e57829003601f168201915b50505050508152602001600482018054600181600116156101000203166002900480601f01602080910402602001604051908101604052809291908181526020018280546001816001161561010002031660029004801561282d5780601f106128025761010080835404028352916020019161282d565b820191906000526020600020905b81548152906001019060200180831161281057829003601f168201915b50505050508152602001600582018054600181600116156101000203166002900480601f0160208091040260200160405190810160405280929190818152602001828054600181600116156101000203166002900480156128cf5780601f106128a4576101008083540402835291602001916128cf565b820191906000526020600020905b8154815290600101906020018083116128b257829003601f168201915b505050505081526020016006820160009054906101000a900473ffffffffffffffffffffffffffffffffffffffff1673ffffffffffffffffffffffffffffffffffffffff1673ffffffffffffffffffffffffffffffffffffffff16815250509050806000015181602001518260400151836060015184608001518560a001518660c00151859550849450839350829250819150975097509750975097509750975050919395979092949650565b6006600081548092919060010191905055506040518060c0016040528060065481526020018581526020018481526020018381526020018281526020013373ffffffffffffffffffffffffffffffffffffffff16815250600a60006006548152602001908152602001600020600082015181600001556020820151816001019080519060200190612a0e92919061553c565b506040820151816002019080519060200190612a2b92919061553c565b50606082015181600301556080820151816004019080519060200190612a5292919061553c565b5060a08201518160050160006101000a81548173ffffffffffffffffffffffffffffffffffffffff021916908373ffffffffffffffffffffffffffffffffffffffff1602179055509050507f775bfdece810d611a8936f69d29e49e65122068832dc26d8a8ed212b82226c916006548585858533604051808781526020018060200180602001868152602001806020018573ffffffffffffffffffffffffffffffffffffffff1673ffffffffffffffffffffffffffffffffffffffff168152602001848103845289818151815260200191508051906020019080838360005b83811015612b4c578082015181840152602081019050612b31565b50505050905090810190601f168015612b795780820380516001836020036101000a031916815260200191505b50848103835288818151815260200191508051906020019080838360005b83811015612bb2578082015181840152602081019050612b97565b50505050905090810190601f168015612bdf5780820380516001836020036101000a031916815260200191505b50848103825286818151815260200191508051906020019080838360005b83811015612c18578082015181840152602081019050612bfd565b50505050905090810190601f168015612c455780820380516001836020036101000a031916815260200191505b50995050505050505050505060405180910390a150505050565b60045481565b600b602052806000526040600020600091509050806000015490806001015490806002018054600181600116156101000203166002900480601f016020809104026020016040519081016040528092919081815260200182805460018160011615610100020316600290048015612d1d5780601f10612cf257610100808354040283529160200191612d1d565b820191906000526020600020905b815481529060010190602001808311612d0057829003601f168201915b5050505050908060030154908060040160009054906101000a900460ff16908060040160019054906101000a900460ff16908060040160029054906101000a900460ff16908060050154908060060154905089565b600060608060606000612d8361560f565b600860008881526020019081526020016000206040518060a001604052908160008201548152602001600182018054600181600116156101000203166002900480601f016020809104026020016040519081016040528092919081815260200182805460018160011615610100020316600290048015612e445780601f10612e1957610100808354040283529160200191612e44565b820191906000526020600020905b815481529060010190602001808311612e2757829003601f168201915b50505050508152602001600282018054600181600116156101000203166002900480601f016020809104026020016040519081016040528092919081815260200182805460018160011615610100020316600290048015612ee65780601f10612ebb57610100808354040283529160200191612ee6565b820191906000526020600020905b815481529060010190602001808311612ec957829003601f168201915b50505050508152602001600382018054600181600116156101000203166002900480601f016020809104026020016040519081016040528092919081815260200182805460018160011615610100020316600290048015612f885780601f10612f5d57610100808354040283529160200191612f88565b820191906000526020600020905b815481529060010190602001808311612f6b57829003601f168201915b505050505081526020016004820160009054906101000a900473ffffffffffffffffffffffffffffffffffffffff1673ffffffffffffffffffffffffffffffffffffffff1673ffffffffffffffffffffffffffffffffffffffff1681525050905080600001518160200151826040015183606001518460800151839350829250819150955095509550955095505091939590929450565b600060608060008061302f615654565b600a60008881526020019081526020016000206040518060c001604052908160008201548152602001600182018054600181600116156101000203166002900480601f0160208091040260200160405190810160405280929190818152602001828054600181600116156101000203166002900480156130f05780601f106130c5576101008083540402835291602001916130f0565b820191906000526020600020905b8154815290600101906020018083116130d357829003601f168201915b50505050508152602001600282018054600181600116156101000203166002900480601f0160208091040260200160405190810160405280929190818152602001828054600181600116156101000203166002900480156131925780601f1061316757610100808354040283529160200191613192565b820191906000526020600020905b81548152906001019060200180831161317557829003601f168201915b5050505050815260200160038201548152602001600482018054600181600116156101000203166002900480601f01602080910402602001604051908101604052809291908181526020018280546001816001161561010002031660029004801561323e5780601f106132135761010080835404028352916020019161323e565b820191906000526020600020905b81548152906001019060200180831161322157829003601f168201915b505050505081526020016005820160009054906101000a900473ffffffffffffffffffffffffffffffffffffffff1673ffffffffffffffffffffffffffffffffffffffff1673ffffffffffffffffffffffffffffffffffffffff1681525050905080600001518160200151826040015183606001518460a00151839350829250809050955095509550955095505091939590929450565b60055481565b6005600081548092919060010191905055506132f5615654565b600a60008481526020019081526020016000206040518060c001604052908160008201548152602001600182018054600181600116156101000203166002900480601f0160208091040260200160405190810160405280929190818152602001828054600181600116156101000203166002900480156133b65780601f1061338b576101008083540402835291602001916133b6565b820191906000526020600020905b81548152906001019060200180831161339957829003601f168201915b50505050508152602001600282018054600181600116156101000203166002900480601f0160208091040260200160405190810160405280929190818152602001828054600181600116156101000203166002900480156134585780601f1061342d57610100808354040283529160200191613458565b820191906000526020600020905b81548152906001019060200180831161343b57829003601f168201915b5050505050815260200160038201548152602001600482018054600181600116156101000203166002900480601f0160208091040260200160405190810160405280929190818152602001828054600181600116156101000203166002900480156135045780601f106134d957610100808354040283529160200191613504565b820191906000526020600020905b8154815290600101906020018083116134e757829003601f168201915b505050505081526020016005820160009054906101000a900473ffffffffffffffffffffffffffffffffffffffff1673ffffffffffffffffffffffffffffffffffffffff1673ffffffffffffffffffffffffffffffffffffffff1681525050905060405180610120016040528060055481526020018260000151815260200182602001518152602001826060015181526020016000151581526020016000151581526020016001151581526020014281526020016000815250600b600060055481526020019081526020016000206000820151816000015560208201518160010155604082015181600201908051906020019061360292919061553c565b506060820151816003015560808201518160040160006101000a81548160ff02191690831515021790555060a08201518160040160016101000a81548160ff02191690831515021790555060c08201518160040160026101000a81548160ff02191690831515021790555060e082015181600501556101008201518160060155905050505050565b6136926156a0565b600b6000848152602001908152602001600020604051806101200160405290816000820154815260200160018201548152602001600282018054600181600116156101000203166002900480601f01602080910402602001604051908101604052809291908181526020018280546001816001161561010002031660029004801561375e5780601f106137335761010080835404028352916020019161375e565b820191906000526020600020905b81548152906001019060200180831161374157829003601f168201915b50505050508152602001600382015481526020016004820160009054906101000a900460ff161515151581526020016004820160019054906101000a900460ff161515151581526020016004820160029054906101000a900460ff16151515158152602001600582015481526020016006820154815250509050818160a0019015159081151581525050428161010001818152505080600b60008581526020019081526020016000206000820151816000015560208201518160010155604082015181600201908051906020019061383792919061553c565b506060820151816003015560808201518160040160006101000a81548160ff02191690831515021790555060a08201518160040160016101000a81548160ff02191690831515021790555060c08201518160040160026101000a81548160ff02191690831515021790555060e0820151816005015561010082015181600601559050507f135c5de72e393a237d2a5fc148db05a3caab37a368a94ee7c4a16afc32586fd681600001518260a001518361010001516040518084815260200183151515158152602001828152602001935050505060405180910390a1505050565b600a602052806000526040600020600091509050806000015490806001018054600181600116156101000203166002900480601f0160208091040260200160405190810160405280929190818152602001828054600181600116156101000203166002900480156139c95780601f1061399e576101008083540402835291602001916139c9565b820191906000526020600020905b8154815290600101906020018083116139ac57829003601f168201915b505050505090806002018054600181600116156101000203166002900480601f016020809104026020016040519081016040528092919081815260200182805460018160011615610100020316600290048015613a675780601f10613a3c57610100808354040283529160200191613a67565b820191906000526020600020905b815481529060010190602001808311613a4a57829003601f168201915b505050505090806003015490806004018054600181600116156101000203166002900480601f016020809104026020016040519081016040528092919081815260200182805460018160011615610100020316600290048015613b0b5780601f10613ae057610100808354040283529160200191613b0b565b820191906000526020600020905b815481529060010190602001808311613aee57829003601f168201915b5050505050908060050160009054906101000a900473ffffffffffffffffffffffffffffffffffffffff16905086565b613b43615654565b600a60008381526020019081526020016000206040518060c001604052908160008201548152602001600182018054600181600116156101000203166002900480601f016020809104026020016040519081016040528092919081815260200182805460018160011615610100020316600290048015613c045780601f10613bd957610100808354040283529160200191613c04565b820191906000526020600020905b815481529060010190602001808311613be757829003601f168201915b50505050508152602001600282018054600181600116156101000203166002900480601f016020809104026020016040519081016040528092919081815260200182805460018160011615610100020316600290048015613ca65780601f10613c7b57610100808354040283529160200191613ca6565b820191906000526020600020905b815481529060010190602001808311613c8957829003601f168201915b5050505050815260200160038201548152602001600482018054600181600116156101000203166002900480601f016020809104026020016040519081016040528092919081815260200182805460018160011615610100020316600290048015613d525780601f10613d2757610100808354040283529160200191613d52565b820191906000526020600020905b815481529060010190602001808311613d3557829003601f168201915b505050505081526020016005820160009054906101000a900473ffffffffffffffffffffffffffffffffffffffff1673ffffffffffffffffffffffffffffffffffffffff1673ffffffffffffffffffffffffffffffffffffffff1681525050905060008160a00151905060008260000151118015613dd65750600654826000015111155b613e48576040517f08c379a00000000000000000000000000000000000000000000000000000000081526004018080602001828103825260108152602001807f4e4f5420412050524f445543542049440000000000000000000000000000000081525060200191505060405180910390fd5b8160600151341015613ec2576040517f08c379a000000000000000000000000000000000000000000000000000000000815260040180806020018281038252601b8152602001807f596f7520446f6e2774204861766520456e6f756768204574686572000000000081525060200191505060405180910390fd5b3373ffffffffffffffffffffffffffffffffffffffff168173ffffffffffffffffffffffffffffffffffffffff161415613f64576040517f08c379a000000000000000000000000000000000000000000000000000000000815260040180806020018281038252601e8152602001807f53656c6c65722043616e277420507572636861736520486973204974656d000081525060200191505060405180910390fd5b81600a6000858152602001908152602001600020600082015181600001556020820151816001019080519060200190613f9e92919061553c565b506040820151816002019080519060200190613fbb92919061553c565b50606082015181600301556080820151816004019080519060200190613fe292919061553c565b5060a08201518160050160006101000a81548173ffffffffffffffffffffffffffffffffffffffff021916908373ffffffffffffffffffffffffffffffffffffffff1602179055509050508073ffffffffffffffffffffffffffffffffffffffff166108fc349081150290604051600060405180830381858888f19350505050158015614073573d6000803e3d6000fd5b507f735d394066f15c73a35004c29f92c2959aedc5d9040af0e7df48578a27469319338234604051808473ffffffffffffffffffffffffffffffffffffffff1673ffffffffffffffffffffffffffffffffffffffff1681526020018373ffffffffffffffffffffffffffffffffffffffff1673ffffffffffffffffffffffffffffffffffffffff168152602001828152602001935050505060405180910390a1505050565b6007602052806000526040600020600091509050806000015490806001018054600181600116156101000203166002900480601f0160208091040260200160405190810160405280929190818152602001828054600181600116156101000203166002900480156141ca5780601f1061419f576101008083540402835291602001916141ca565b820191906000526020600020905b8154815290600101906020018083116141ad57829003601f168201915b505050505090806002018054600181600116156101000203166002900480601f0160208091040260200160405190810160405280929190818152602001828054600181600116156101000203166002900480156142685780601f1061423d57610100808354040283529160200191614268565b820191906000526020600020905b81548152906001019060200180831161424b57829003601f168201915b505050505090806003018054600181600116156101000203166002900480601f0160208091040260200160405190810160405280929190818152602001828054600181600116156101000203166002900480156143065780601f106142db57610100808354040283529160200191614306565b820191906000526020600020905b8154815290600101906020018083116142e957829003601f168201915b505050505090806004018054600181600116156101000203166002900480601f0160208091040260200160405190810160405280929190818152602001828054600181600116156101000203166002900480156143a45780601f10614379576101008083540402835291602001916143a4565b820191906000526020600020905b81548152906001019060200180831161438757829003601f168201915b505050505090806005018054600181600116156101000203166002900480601f0160208091040260200160405190810160405280929190818152602001828054600181600116156101000203166002900480156144425780601f1061441757610100808354040283529160200191614442565b820191906000526020600020905b81548152906001019060200180831161442557829003601f168201915b5050505050908060060160009054906101000a900473ffffffffffffffffffffffffffffffffffffffff16905087565b60006060806060806000806144856156f2565b600960008a81526020019081526020016000206040518060e001604052908160008201548152602001600182018054600181600116156101000203166002900480601f0160208091040260200160405190810160405280929190818152602001828054600181600116156101000203166002900480156145465780601f1061451b57610100808354040283529160200191614546565b820191906000526020600020905b81548152906001019060200180831161452957829003601f168201915b50505050508152602001600282018054600181600116156101000203166002900480601f0160208091040260200160405190810160405280929190818152602001828054600181600116156101000203166002900480156145e85780601f106145bd576101008083540402835291602001916145e8565b820191906000526020600020905b8154815290600101906020018083116145cb57829003601f168201915b50505050508152602001600382018054600181600116156101000203166002900480601f01602080910402602001604051908101604052809291908181526020018280546001816001161561010002031660029004801561468a5780601f1061465f5761010080835404028352916020019161468a565b820191906000526020600020905b81548152906001019060200180831161466d57829003601f168201915b50505050508152602001600482018054600181600116156101000203166002900480601f01602080910402602001604051908101604052809291908181526020018280546001816001161561010002031660029004801561472c5780601f106147015761010080835404028352916020019161472c565b820191906000526020600020905b81548152906001019060200180831161470f57829003601f168201915b505050505081526020016005820160009054906101000a900473ffffffffffffffffffffffffffffffffffffffff1673ffffffffffffffffffffffffffffffffffffffff1673ffffffffffffffffffffffffffffffffffffffff1681526020016006820154815250509050806000015181602001518260400151836060015184608001518560a001518660c00151859550849450839350829250819150975097509750975097509750975050919395979092949650565b60035481565b60008054600181600116156101000203166002900480601f01602080910402602001604051908101604052809291908181526020018280546001816001161561010002031660029004801561487f5780601f106148545761010080835404028352916020019161487f565b820191906000526020600020905b81548152906001019060200180831161486257829003601f168201915b505050505081565b60025481565b6004600081548092919060010191905055506040518060e0016040528060045481526020018681526020018581526020018481526020018381526020013373ffffffffffffffffffffffffffffffffffffffff1681526020018281525060096000600454815260200190815260200160002060008201518160000155602082015181600101908051906020019061492592919061553c565b50604082015181600201908051906020019061494292919061553c565b50606082015181600301908051906020019061495f92919061553c565b50608082015181600401908051906020019061497c92919061553c565b5060a08201518160050160006101000a81548173ffffffffffffffffffffffffffffffffffffffff021916908373ffffffffffffffffffffffffffffffffffffffff16021790555060c082015181600601559050507ffd274853b3082d2bbf6647d7a1552825ce34531f5c3ac1102d2ddbb4428717ac60045486868686338760405180888152602001806020018060200180602001806020018773ffffffffffffffffffffffffffffffffffffffff1673ffffffffffffffffffffffffffffffffffffffff16815260200186815260200185810385528b818151815260200191508051906020019080838360005b83811015614a85578082015181840152602081019050614a6a565b50505050905090810190601f168015614ab25780820380516001836020036101000a031916815260200191505b5085810384528a818151815260200191508051906020019080838360005b83811015614aeb578082015181840152602081019050614ad0565b50505050905090810190601f168015614b185780820380516001836020036101000a031916815260200191505b50858103835289818151815260200191508051906020019080838360005b83811015614b51578082015181840152602081019050614b36565b50505050905090810190601f168015614b7e5780820380516001836020036101000a031916815260200191505b50858103825288818151815260200191508051906020019080838360005b83811015614bb7578082015181840152602081019050614b9c565b50505050905090810190601f168015614be45780820380516001836020036101000a031916815260200191505b509b50505050505050505050505060405180910390a15050505050565b6002600081548092919060010191905055506040518060e0016040528060025481526020018681526020018581526020018481526020018381526020018281526020013373ffffffffffffffffffffffffffffffffffffffff16815250600760006002548152602001908152602001600020600082015181600001556020820151816001019080519060200190614c9992919061553c565b506040820151816002019080519060200190614cb692919061553c565b506060820151816003019080519060200190614cd392919061553c565b506080820151816004019080519060200190614cf092919061553c565b5060a0820151816005019080519060200190614d0d92919061553c565b5060c08201518160060160006101000a81548173ffffffffffffffffffffffffffffffffffffffff021916908373ffffffffffffffffffffffffffffffffffffffff1602179055509050507f960bd46fec9bf5384fe0d02b4e746efb3428807ae15c8586b5a97e576fa8efb96002548686868686336040518088815260200180602001806020018060200180602001806020018773ffffffffffffffffffffffffffffffffffffffff1673ffffffffffffffffffffffffffffffffffffffff16815260200186810386528c818151815260200191508051906020019080838360005b83811015614e0a578082015181840152602081019050614def565b50505050905090810190601f168015614e375780820380516001836020036101000a031916815260200191505b5086810385528b818151815260200191508051906020019080838360005b83811015614e70578082015181840152602081019050614e55565b50505050905090810190601f168015614e9d5780820380516001836020036101000a031916815260200191505b5086810384528a818151815260200191508051906020019080838360005b83811015614ed6578082015181840152602081019050614ebb565b50505050905090810190601f168015614f035780820380516001836020036101000a031916815260200191505b50868103835289818151815260200191508051906020019080838360005b83811015614f3c578082015181840152602081019050614f21565b50505050905090810190601f168015614f695780820380516001836020036101000a031916815260200191505b50868103825288818151815260200191508051906020019080838360005b83811015614fa2578082015181840152602081019050614f87565b50505050905090810190601f168015614fcf5780820380516001836020036101000a031916815260200191505b509c5050505050505050505050505060405180910390a15050505050565b614ff56156a0565b600b6000848152602001908152602001600020604051806101200160405290816000820154815260200160018201548152602001600282018054600181600116156101000203166002900480601f0160208091040260200160405190810160405280929190818152602001828054600181600116156101000203166002900480156150c15780601f10615096576101008083540402835291602001916150c1565b820191906000526020600020905b8154815290600101906020018083116150a457829003601f168201915b50505050508152602001600382015481526020016004820160009054906101000a900460ff161515151581526020016004820160019054906101000a900460ff161515151581526020016004820160029054906101000a900460ff1615151515815260200160058201548152602001600682015481525050905081816080019015159081151581525050428161010001818152505080600b60008581526020019081526020016000206000820151816000015560208201518160010155604082015181600201908051906020019061519a92919061553c565b506060820151816003015560808201518160040160006101000a81548160ff02191690831515021790555060a08201518160040160016101000a81548160ff02191690831515021790555060c08201518160040160026101000a81548160ff02191690831515021790555060e0820151816005015561010082015181600601559050507f9315a06deb34e8c8b5964d7eb467368dc5a35bc3ee02127a4a5586334d453886816000015182608001518361010001516040518084815260200183151515158152602001828152602001935050505060405180910390a1505050565b60065481565b60018054600181600116156101000203166002900480601f0160208091040260200160405190810160405280929190818152602001828054600181600116156101000203166002900480156153165780601f106152eb57610100808354040283529160200191615316565b820191906000526020600020905b8154815290600101906020018083116152f957829003601f168201915b505050505081565b6008602052806000526040600020600091509050806000015490806001018054600181600116156101000203166002900480601f0160208091040260200160405190810160405280929190818152602001828054600181600116156101000203166002900480156153d05780601f106153a5576101008083540402835291602001916153d0565b820191906000526020600020905b8154815290600101906020018083116153b357829003601f168201915b505050505090806002018054600181600116156101000203166002900480601f01602080910402602001604051908101604052809291908181526020018280546001816001161561010002031660029004801561546e5780601f106154435761010080835404028352916020019161546e565b820191906000526020600020905b81548152906001019060200180831161545157829003601f168201915b505050505090806003018054600181600116156101000203166002900480601f01602080910402602001604051908101604052809291908181526020018280546001816001161561010002031660029004801561550c5780601f106154e15761010080835404028352916020019161550c565b820191906000526020600020905b8154815290600101906020018083116154ef57829003601f168201915b5050505050908060040160009054906101000a900473ffffffffffffffffffffffffffffffffffffffff16905085565b828054600181600116156101000203166002900490600052602060002090601f016020900481019282601f1061557d57805160ff19168380011785556155ab565b828001600101855582156155ab579182015b828111156155aa57825182559160200191906001019061558f565b5b5090506155b89190615745565b5090565b6040518060e00160405280600081526020016060815260200160608152602001606081526020016060815260200160608152602001600073ffffffffffffffffffffffffffffffffffffffff1681525090565b6040518060a0016040528060008152602001606081526020016060815260200160608152602001600073ffffffffffffffffffffffffffffffffffffffff1681525090565b6040518060c001604052806000815260200160608152602001606081526020016000815260200160608152602001600073ffffffffffffffffffffffffffffffffffffffff1681525090565b6040518061012001604052806000815260200160008152602001606081526020016000815260200160001515815260200160001515815260200160001515815260200160008152602001600081525090565b6040518060e001604052806000815260200160608152602001606081526020016060815260200160608152602001600073ffffffffffffffffffffffffffffffffffffffff168152602001600081525090565b61576791905b8082111561576357600081600090555060010161574b565b5090565b9056fea265627a7a723158207d863c22af4d8b91113608d25784c9958b4c66c91052e5de9ddccff53801c6ca64736f6c634300050c0032",
  "source": "/*\n    PUBLIC PROPERTIES\n        - dapp_name\n        - dapp_builders\n        - farmers\n        - buyers\n        - products\n        - transport companies\n        - farmerCont\n        - buyerCount\n        - transportCompanyCount\n        - productsCount\n\n\n    PUBLIC METHODS\n        - CreateFarmer\n        - CreateBuyer\n        - CreateTransportCompanies\n        - CreateProduct\n\n        - getFarmerDetail\n        - getTransportCompanyDetail\n        - getBuyerDetail\n        - getProductDetail\n\n        - traceProduct\n        - store transactionHash\n*/\npragma solidity ^0.5.0;\ncontract MarketPlace{\n\n\n    string public dapp_name;  //dapp_name \n    string public dapp_builder = \"@GoodnessEzeokafor\";\n    uint public farmerCount =0; \n    uint public buyerCount =0;\n    uint public transportCompanyCount =0;\n    uint public traceCount =0;\n    uint public productCount = 0;\n\n    mapping (uint=>Farmer) public farmers;\n    mapping (uint=>Buyer) public buyers;\n    mapping (uint=>TransportCompany) public transport_companies;\n    mapping (uint=>Product) public products;\n    mapping (uint=>Trace) public tracing;\n\n\n    /* START STRUCT  */\n    struct Farmer{\n        uint id;\n        string full_name;\n        string picture;\n        string farm_name;\n        string email_adddress;\n        string farm_description;\n        address farmer_wallet_address;\n    }\n\n\n\n\n    struct Buyer{\n        uint id;\n        string full_name;\n        string picture;\n        string email_address;\n        address buyer_wallet_address;\n    }\n\n\n    struct TransportCompany{\n        uint id;\n        string transport_name;\n        string transport_description;\n        string picture;       \n        string transport_address;\n        address payable transport_wallet_address;\n        uint price ; \n    }\n\n\n    struct Product{\n        uint id;\n        string product_name;\n        string product_description;\n        uint product_price;\n        string upload_image;\n        address payable seller;\n    }\n\n    struct Trace{\n        uint id;\n        uint price_id;\n        string  product_name;\n        uint product_price;\n        // uint transport_company_id;\n        bool left;\n        bool arrived;\n        bool pending; \n        uint timestamp;\n        uint updated;\n    }\n\n\n\n    /* END STRUCT  */\n\n    /*START EVENT */\n    event FarmCreated(\n        uint id,\n        string full_name,\n        string picture,\n        string farm_name,\n        string email_adddress,\n        string farm_description,\n        address farmer_wallet_address\n    );\n\n\n    event BuyerCreated(\n        uint id,\n        string full_name,\n        string picture,\n        string email_address,\n        address buyer_wallet_address\n    );\n    event ProductCreated(\n        uint id,\n        string product_name,\n        string product_description,\n        uint product_price,\n        string upload_image,\n        address payable seller\n    );\n    event TraceCreated(\n        uint id,\n        uint product_id,\n        string  product_name,\n        uint product_price,\n        // uint transport_company_id,\n        bool left,\n        bool arrived,\n        bool pending,\n        uint timestamp,\n        uint updated\n    ); \n    event TransportCompanyCreated(\n        uint id,\n        string transport_name,\n        string transport_description,\n        string picture,\n        string transport_address,\n        address transport_wallet_address,\n        uint price  \n    );\n    event BoughtProduct(address _from,address _to,uint amt);\n    event Left(uint id, bool left, uint updated);\n    event Arrived(uint id, bool arrived, uint updated);\n    \n    /* END EVENT */\n\n    /* START METHOD */\n    function createSellerProfile(\n        string memory _full_name,\n        string memory _picture,\n        string memory _farm_name,\n        string memory _email_address,\n        string memory _farm_description\n    )public{\n        farmerCount++;\n        farmers[farmerCount] = Farmer(\n            farmerCount,\n            _full_name,\n            _picture,\n            _farm_name,\n            _email_address,\n            _farm_description,\n            msg.sender\n        );\n\n        emit FarmCreated(\n            farmerCount,\n            _full_name,\n            _picture,\n            _farm_name,\n            _email_address,\n            _farm_description,\n            msg.sender\n        );\n\n    }\n\n\n    function createBuyer(\n        string memory _full_name,\n        string memory _picture,\n        string memory  _email_address\n        // address buyer_wallet_address\n    )public{\n        buyerCount++;\n        buyers[buyerCount] = Buyer(\n                buyerCount,\n                _full_name,\n                _picture,\n                _email_address,\n                msg.sender\n        );\n        emit BuyerCreated(\n            buyerCount,\n                _full_name,\n                _picture,\n                _email_address,\n                msg.sender\n        );\n    }\n\n    function createTransportCompany(\n        string memory _transport_name,\n        string memory _transport_description,\n        string memory _picture,\n        string memory _transport_address,\n        uint  _price\n    )public{\n        transportCompanyCount++;\n        transport_companies[transportCompanyCount] = TransportCompany(\n            transportCompanyCount,\n            _transport_name,\n            _transport_description,\n            _picture,\n            _transport_address,\n            msg.sender,\n            _price\n        );\n\n        emit TransportCompanyCreated(\n            transportCompanyCount,\n                _transport_name,\n                _transport_description,\n                _picture,\n                _transport_address,\n                msg.sender,\n                _price\n        );\n    }\n\n    function createTrace(\n        uint _product_id,\n        string memory transport_name\n    )public{\n        traceCount++;\n        Product memory product = products[_product_id];\n        tracing[traceCount] = Trace(\n            traceCount,\n            product.id,\n            product.product_name,\n            product.product_price,\n            false,\n            false,\n            true,\n            now,\n            0\n        );\n    }\n\n    function leftTrace(\n        uint _id,\n        bool status\n    )public{\n        Trace memory trace = tracing[_id];\n        trace.left = status;\n        trace.updated = now;\n        tracing[_id] = trace;\n        emit Left(trace.id,trace.left,trace.updated);\n    }\n    function arriveTrace(\n        uint _id,\n        bool status\n    )public{\n        Trace memory trace = tracing[_id];\n        trace.arrived = status;\n        trace.updated = now;\n        tracing[_id] = trace;\n        emit Arrived(trace.id,trace.arrived,trace.updated);\n    }\n\n\n\n    function getFarmerDetail(uint _id)public view returns(\n                                  uint id,\n                                  string memory,\n                                  string memory,\n                                  string memory,\n                                  string memory,\n                                  string memory,\n                                  address\n    ){\n        Farmer memory f = farmers [_id];\n        return (\n            f.id,\n            f.full_name,\n            f.picture,\n            f.farm_name,\n            f.email_adddress,\n            f.farm_description,\n            f.farmer_wallet_address\n        );\n    }\n\nfunction getProductDetail(uint _id)public view returns(\n                                  uint id,\n                                  string memory,\n                                  string memory,\n                                  uint,\n                                  address\n    ){\n        Product memory p = products [_id];\n        return (\n            p.id,\n            p.product_name,\n            p.product_description,\n            p.product_price,\n            p.seller\n        );\n    }\n\n    function getBuyerDetail(uint _id)public view returns(\n                uint,\n        string  memory,\n        string memory,\n        string memory ,\n        address\n    ){\n        Buyer memory b = buyers [_id];\n        return(\n            b.id,\n            b.full_name,\n            b.picture,\n            b.email_address,\n            b.buyer_wallet_address\n        );\n    }\n\n\n    function getTransportCompanyDetail(uint _id)public view returns(\n        uint id,\n        string memory,\n        string memory,\n        string memory, \n        string memory,\n        address,\n        uint\n    ){\n        TransportCompany memory t = transport_companies [_id];\n        return (\n            t.id,\n            t.transport_name,\n            t.transport_description,\n            t.picture,\n            t.transport_address,\n            t.transport_wallet_address,\n            t.price\n        );\n    }   \n\n\n\n    function createProduct(\n        string memory _product_name,\n        string memory _product_description,\n        uint _price,\n        string memory _upload_image\n    )public{\n        productCount++;\n        products[productCount]= Product(\n            productCount,\n            _product_name,\n            _product_description,\n            _price,\n            _upload_image,\n            msg.sender\n        );\n        emit ProductCreated(\n              productCount,\n            _product_name,\n            _product_description,\n            _price,\n            _upload_image,\n            msg.sender\n        );\n    }\n\n    function buyProduct(uint _id) public payable{\n        // fetch the product\n                // Product memory p = products[_id];\n\n        Product memory _product = products[_id];\n        // fetch the owner\n        address payable _seller = _product.seller;\n        // make sure the product is is valid\n        require(_product.id > 0 && _product.id <= productCount,\"NOT A PRODUCT ID\");\n        // require that there is enough Ether in the transaction\n        require(msg.value >= _product.product_price,\"You Don't Have Enough Ether\");\n        // require that the buyer is not the seller\n        require(_seller != msg.sender,\"Seller Can't Purchase His Item\");\n        // transfer ownership\n        // _product.owner = msg.sender;\n        // mark as purchased\n        //update the product\n        products[_id] = _product;\n        // pay the seller by paying them ether\n        address(_seller).transfer(msg.value); \n        // trigger an event\n        emit BoughtProduct(\n            msg.sender,   \n            _seller,\n            msg.value\n        );\n    }\n}",
  "sourcePath": "/home/goodness/Development/ethereum/market-dapp/client/src/contracts/MarketPlace.sol",
  "compiler": {
    "name": "solc",
    "version": "0.5.12+commit.7709ece9.Emscripten.clang"
  },
  "schemaVersion": "3.0.19",
  "updatedAt": "2020-01-29T11:21:49.862Z",
  "networkType": "ethereum",
  "devdoc": {
    "methods": {}
  },
  "userdoc": {
    "methods": {}
  }
}